:400000000080002011000000B9130000B913000010B501F0F1F9C04610B512222C4B1A60302002F0A7FC2B4A2B4B1A6000242B4B1C602B4B2B4A1A60802252002A490A6051
:400040002A4919602A482B4908602B4919602B490A602B4A1A60C02292002A490A602A4919602A490A602A4A1A60E0210901294A1160294A1A60AD214902284A1160284A3A
:400080001A6082221206274B1A60274A274B1A604222274B1A607E32264B1A607F3A264B1A600232254B1A600132254B1A600132244B1A600132244B1A602449082002F038
:4000C0007DFB082002F064FB214B1C6010BDC046300010400600008004010B40000301400000014040FF00800803014042FF0080007F1A0600050140C0FF00800403014041
:4001000041FF00800C03014043FF00801003014044FF00801403014045FF00801803014046FF008008010B404902040000010B405801014054010140500101404001014066
:400140003C010140280101400C010140192C00000C020B4010B572B60122424B1A7000240FE041486200131959000B00411889881A5AC31858880004104301F0E9F80134FF
:40018000E4B2012CEDD938490C3138487C3001F0C5F8E0221201364B1A800122354B1A7080221205344B1A603022344B1A60344A344B1A60AA22344B1A60344A344B1A6011
:4001C00099231B04334A1360334A1360334A1360A221C903324A1160324A1360324A1360324A1360324A334B1A600F23324A1360324A1360324803783C218B4314221343DB
:40020000DBB203702F4A107816230343DBB213702D4B19602D4A2E4B1A6080222D4B1A60323A2D4B1A602D4A2D4B1A6040222D4B1A6002232C4A13602C492D4A11602D4A42
:4002400013603E222C4B1A602C4A2D4B1A6005222C4B1A602C4A2D4B1A60FFF7DDFE01F08DF810BD1C700F40AC390000AC3E000000600F4002600F4000000240000202402E
:4002800099EE00000003024000040240080800000005024000500F4010500F4020500F4028500F4040500F4050500F4070500F4004040484D8360F402000104000800F40F8
:4002C00001700F4000700F4000000440B62D0500080004401801044000020440B1040000080204401802044000030440B10D0000080304401803044000040440B12405002E
:400300000804044000050440B60D00000805044010B5064C2378002B07D1054B002B02D0044800E000BF0123237010BD580100200000000078390000084B10B5002B03D05F
:400340000749084800E000BF07480368002B00D110BD064B002BFBD09847F9E7000000005C01002078390000C00000200000000010B501F075FD1E4A1378013313701D4B6D
:400380001A7801321A705A7801325A709A7801329A70DA780132D2B2DA70012A04D90022DA70154800F0BAFA114B1B78132B09D900220021002000F059F9002200210020F1
:4003C00000F080F90B4B9B78022B08D9012001F0EFFD012001F0C8FD012001F0D1FD054B1B78022B02D9012001F0D6FD10BDC0468C010020740100209C02002070B500F0B0
:400400008DF904000B4B1D7901F034F902002900200000F057F901F02DF903230340064C01220221200000F001FF200000F062FD70BDC046740100209C02002010B582B089
:40044000040000F07BFE0190019B002B07D1002001F0A2FD0022034B1A70E07800E0024802B010BD74010020FFFF000010B50400012001F09DFD012001F076FD012001F095
:400480007FFD00220C4B9A70002001F091FD022C07D0032C09D0012C0DD1002001F064FD09E0002001F06CFD05E0002001F05CFD002001F065FD10BD7401002010B501F0D7
:4004C0009FFC002801D0002400E0012401F0A0FC002800D1023401F0A3FC002800D1043401F0A6FC002800D10834002C00D10134200010BD70B562B6042000F09DF801F004
:40050000BFF8FFF7DBFF1D4C607101F0DDFB62791B4D1C49280002F00BFE280001F064FC6379DB08012501263340DB43D8B201F03FFD607980086840304001F021FD607938
:4005400040086840304001F00FFD60796840304001F022FD61794A1C042000F03DFC01F0C3FC01F073F800F0F1FF01F0FFFE064801F020F8054801F0E9FC70BD740100207A
:40058000380200209C390000FD0300007103000070B5FFF7AFFF244B186E01F0CDFD00F0E5FB02282CD004D800280BD0012818D037E004282CD02FD3FF2832D1FC3800F0AA
:4005C000C9FBECE7194B06229C5E1D7A01F052F802002900200000F049F8032000F0BAFBDDE7124B0A229C5E1D7901F043F802002900200000F066F8032000F0ABFBCEE7B8
:400600000A4BD86800F056F9032000F0A3FBC6E7032000F09FFBC2E70549064800F090F9BDE700F08DFBBAE7CC400000740100209C020020A802002010B5040001F0D2FDAE
:40064000042C00D90424200001F090FD034B186D01F05EFD012001F025FD10BDCC400000120403021A4310000843704710B504000020134B1870002C0CDAD30701D500293B
:4006800008D0002001F082FE0D4B5C60604200F00DFF14E0002C0CDD930701D5002908D0012001F073FE064B5C60200000F0FEFE05E00022024B5A60002000F0F7FE10BD29
:4006C0008C01002010B504000020134B1870002C0CDAD30701D5002908D0002001F062FE0D4B9C60604201F0F1FD14E0002C0CDD930701D5002908D0012001F053FE064B47
:400700009C60200001F0E2FD05E00022024B9A60002001F0DBFD10BD8C010020014B0820185E70478C010020024B00221A605A607047C046980100200022014B1A72704704
:40074000980100200122014B1A72704798010020014B187A7047C04698010020014BD8607047C04698010020014B18617047C04698010020014B58617047C0469801002051
:40078000014B98617047C04698010020014B18607047C046C4000020014B18687047C046C400002010B5034B04241C5700F010FF604310BDC400002010B500220021002083
:4007C000FFF780FFFFF7B0FFFFF7B6FFFFF7EAFF014B586010BDC046980100200122014B1A717047C4000020FF22014B1A717047C400002010B5064B9869002807D0FFF791
:40080000D1FF044B5843024B996902F067FB10BD98010020407E050010B5034B9B695843024902F05BFB10BD98010020407E0500F0B583B00500FFF78BFF002830D0FFF709
:40084000B1FF0190019C2C1B631D0A2B2AD9174B1A68A2181A60164B9B689A4201DD134A13605B42114A1268934201DD0F4A13600E4D6B68E71AE86860430A2102F02EFB3C
:40088000060028692B6858430A2102F027FB3618686978430A2102F021FB6C60301802E0002000E0002003B0F0BDC04698010020C400002070B5FFF7AFFFFFF7B9FF04008D
:4008C000144BD861FFF768FF0500844209DD124B1C7800F0CFFE020028B22100FFF7F2FE16E043429C420ADA0B4B1C7800F0C2FE02006D4228B22100FFF7E4FE08E0064B2D
:400900001D7800F0B7FE020020B22900FFF7DAFE70BDC046980100207801002010B582B00400FFF767FF0090042301220221200000F03CFC200000F0DDFA02B010BDC04625
:40094000F8B506000F00FFF779FD0400300000F0AFFC0500FFF7B2FD854200D0ADE00C2C61D004D8002C08D0032C49D09AE0F02C6FD0F52C00D185E094E0300000F02CFC33
:4009800000281BD100220021FFF770FED14B186E01F0BEFBFF2200210020FFF761FE02000021002001F0D0FB012001F07BFB002000F0D6F9032000F0CDF9BEE1300000F07B
:4009C0000BFC012819D1FFF7F7FEC24B186E01F09FFBFF2200210020FFF742FE02000021012001F0B1FB012001F05CFB012000F0B7F9032000F0AEF99FE100F0A1F99CE1F0
:400A000000F0BAF9002807D100F0A4F9300000F0E5FBB14B188090E1042000F09BF90120FFF724FD89E1300000F01CFC002802D0002000F0D7FD300000F010FC002802D0FB
:400A4000FFF7D2FE01E0FFF7C9FE032000F082F973E1002200210020FFF708FE00F070F99C4B186E01F054FBFF2200210020FFF7F7FD02000021002001F066FB012001F0D8
:400A800011FB5AE1300000F019FC0400300000F013FC02002100380000F076FB380000F029FA4AE1032000F055F98C4B9C4200D143E10020FFF7DAFC3FE1FFF7FFFC01301C
:400AC000854200D039E1072C00D18DE00DD8042C00D194E004D8002C19D0032C5AD013E1052C6BD0062C74D00EE10D2C00D1CEE006D80A2C00D19CE00C2C00D1A4E003E1E1
:400B0000F02C00D1CCE0F52C00D1EDE0FCE0300000F062FB00281BD100220021FFF7D2FD6C4B186E01F0F4FAFF2200210020FFF797FD02000021002001F006FB012001F099
:400B4000B1FA002000F00CF9032000F003F9F4E0300000F041FB012819D1FFF72DFE5D4B186E01F0D5FAFF2200210020FFF778FD02000021012001F0E7FA012001F092FAD3
:400B8000012000F0EDF8032000F0E4F8D5E000F0D7F8D2E000F0F0F8002808D1013000F0D9F8300000F01AFB4D4B1880C5E0042000F0D0F80120FFF759FCBEE0300000F04F
:400BC0001DFBFFF7CBFD00F0DDF8032000F0C2F8B3E0300000F01AFBFFF7C6FD00F0DAF8032000F0B7F8A8E0300000F017FBFFF7C1FD00F0D7F8032000F0ACF89DE000F037
:400C0000BBF801280ED100F0DDF800280AD0FFF799FD300000F0EAFA324B1860022000F099F88AE0042000F095F80120FFF71EFC83E0300000F00AFBFFF7A2FD00F0BAF80F
:400C4000032000F087F878E000F096F8012808D1002200210020FFF735FDFFF765FDFFF76BFD300000F0FEFA002802D0002000F0B9FC300000F0F2FA002802D0FFF7B4FD45
:400C800001E0FFF7ABFD032000F064F855E0300000F0ECFAFFF77AFD032000F05BF84CE0002200210020FFF70DFD00F049F8094B186E01F02DFAFF2200210020FFF7D0FC62
:400CC00002000021002001F03FFA012001F0EAF933E0C046CC4000007A010020FFFF00007E01002080010020300000F0E7FA0400300000F0E1FA02002100380000F044FA0B
:400D0000380000F0F7F818E000F036F8012803D1013000F01FF80AE000F02EF8002803D1033000F017F802E0032000F013F8034B9C4202D00020FFF799FBF8BDFFFF0000C8
:400D400010B5FFF7F1FC024BFF221A705A7010BDD0000020014B58707047C046D0000020014B18707047C046D0000020014B58787047C046D0000020014B18787047C046A8
:400D8000D0000020024A117804230B4313707047BA010020024A117802230B4313707047BA010020024A117801230B4313707047BA010020024A117808230B4313707047A3
:400DC000BA010020034B18780F3843425841C0B27047C046BA010020F8B54F464646C0B404000E00170000F093FE0F202040354D28603F2331001940334A11603B40334F6F
:400E00003B60334C00262670800108434005E060304B9846A360304B1B686360200000F041FD01232370E6604346A3602B4B1B686360200000F036FD022323702B68DB066C
:400E4000FC22D20491461343E3604346A360244B1B686360200000F025FD032323702B689A013B6813435B05E3604346A3601D4B1B686360200000F015FD04232370E660BC
:400E80004346A360184B1B686360200000F00AFD052323702B68DB064A461343E3604346A360124B1B686360200000F0FBFC00F0F5FB0F491C2001F081FC0CBC90469946F9
:400EC000F8BDC046B4020020C80200208C030020B8020020FFFF1F80A0002E40C0002E40E0002E4000012E4020012E4040012E40E90F000010B586B0002815D0038802ACE1
:400F000002930023237163718278A271E3716B460593C11C0822684602F0F8F8200000F00DFE002802D102E0022000E0012006B010BDC046014B18787047C046C802002029
:400F4000014B18787047C046B402002002207047104B1878C0B2002819D15A78D2B29B78DBB29A4205D20B4A93785078181AC0B20EE0084B5A78D2B29B78DBB29A4207D952
:400F8000044A93785078181A1030C0B200E010207047C046BB010020124A93780133DBB293709378DBB20F2B02D900220D4B9A700C4B1B78002B0BD00A4A53780133DBB257
:400FC00053705378DBB20F2B02D90022054B5A70044A537891785B1A59424B41DBB213707047C046BB01002070B580225201444B1A60444B1B68DA0706D49A0706D45A0752
:4010000006D41B0706D406E0002404E0012402E0022400E003243C4B9A78D2B264013B4B9C4664442368DB0202D46168490D02E06168C90889B2364B500082189000C15204
:40104000314A9178C9B22068000C0F2528404D0069188D005D19A8709178C9B2A5682D0E4800411888001818C5709178C9B2A068000CC0B24D0069188D005D192871917881
:40108000C9B2A068000AC0B24D0069188D005D1968719178C9B2A568EDB2480041188800181885719178C9B2E5682D0E4800411888001818C5719178C9B2E068000CC0B223
:4010C0004D0069188D005D1928729178C9B2E068000AC0B24D0069188D005D1968729278D2B2E068C0B251008A1891005B189872FFF752FF226801231343236070BDC04648
:4011000000002E4008002E40BB010020A0002E40CC02002010B5FFF71BFF00280BD0064A53780133DBB253705378DBB20F2B02D90022014B5A7010BDBB01002010B582B037
:40114000041E17D0FFF704FF6B46D87107331B78002B11D00A4B5B78DBB25A00D3189900084B59180C22200001F0D0FFFFF7D2FF002002E0022000E0022002B010BDC046C3
:40118000BB010020CC02002070B50400012000F075F820800423A370E01CF92100F07CF80500FFF7D3FE6419E07070BD70B504001E00012000F062F820800823A370E51C13
:4011C000F621280000F068F82418E670421C0499280000F075F870BD0079704710B503300222012100F078F800B210BD10B503300522012100F070F810BDC04610B5033070
:401200000522012100F068F810BDC04610B503300522012100F060F810BDC04610B503300522012100F058F810BDC04670B504001D00002000F022F820800423A370E01C4C
:40124000092100F029F82418E57070BD10B503300422012100F040F810BDC0460379022018407047037901201840704710B503300222012100F030F880B210BD8002802367
:40128000DB0018408901403B194001433F200240114308007047C04610B504000170FFF74FFE6070FFF746FEA070032010BDC04603783F2018407047407970470079704789
:4012C00010B50B0E8354531C0C14C454931C0C12C4540332815410BD70B50600002A09DD002909DB521A0132042A00DD0422002A05DC03E0042202E0042200E0002200247C
:40130000002007E06318F55C531E1B1BDB009D4028430134A242F5DC70BDC046F0B50025002711E0BB00C658F3B2FF22964308E06A008A181478A419527822700135013B8E
:40134000DBB2002BF4D10137102FEBD9F0BDC04610B50A00002101F0E2FE10BD064B1B68002803D080221206134301E05B005B08014A13607047C04680033A4010B5032393
:40138000084A1360084A136080221206074B1A604022074B1A600022064B1A600120FFF7DDFF10BD300030403000314000003A4000033A40000E3F4010B501F07BFE0368E3
:4013C0000C2B00D1FEE7FEE710B50300084A1068C318084A9A1A802A02DC054A136005E001F068FE0C2303600120404210BDC046D4000020D803002070B50F4E0F4D13E05A
:4014000029686B68AC68002202E001C901C30432A242FAD1E868002202E0002102C304328242FAD11035013E002EE9D101F048FEFFF7AEF8FEE7C04601000000144500003A
:4014400010B50E4A136801218B43136000230AE0032B03D89A000A49505800E009489900094A885001332F2BF2D9FEF773FE034A116801230B43136010BDC0460000104044
:4014800000000000B9130000000000200004000C014B18607047C046480220400004000C014B18607047C046540220400004000C014B18607047C0464C02204070B5040056
:4014C0000D0001F006FCAC40024B1C6001F005FC70BDC0460800204010B501F0FAFB064A116820230B43136001F0F7FB18212020FFF7E4FF10BDC04600002040014B186006
:401500007047C0467802204010B50D4C8023DB042360236823600020FFF7B8FF236823600C22084B1A600120FFF7E8FF3122064B1A60FF20FFF7B2FF0020FFF7B7FF10BD92
:4015400040022040640220406802204010B5064B1B78002B04D1FFF7D7FF0122024B1A70FFF7BAFF10BDC046BF010020014B98647047C0460000002010B5040001F0A9FBE5
:40158000044A1168044B0B40A4051C43146001F0A4FB10BD00E400E0FFFF3FFF0422014B1A60704700E100E00422014B1A60704780E100E010B50400FFF7F6FF2000FFF7DF
:4015C000D5FF0320FFF7D8FFFFF7E8FF10BDC04610B500F00FFF024B9C46604400B210BD0080FFFF10B5002805DB80B2054B9C46604480B203E0034B9C46604480B200F004
:40160000F3FE10BD0080FFFF024B18780F2318407047C04660000F40014B18707047C04680000F4010B50F20FFF7F6FFFFF7ECFF01F04FFB044A117810230B43DBB21370D8
:4016400001F04BFB10BDC04690000F4010B500F023FF8020000200F0C7FE054B1B78002B02D10122024B1A70FFF7DCFF10BDC046C0010020014B1878C0B2704765000F403A
:4016800010B501F026FB044A117810230B43DBB2137001F022FB10BD95000F40054B1A6801210A431A601B68194201D1012000E00020704704002E4010B50E4A0E4B1A6087
:4016C000FFF7ECFF1C2001F063F80C4A116801230B431360F0231B0100E0013B002B03D0064A1268D207F8D5002B01D1012000E0002010BD0110000000002E4010002E402C
:4017000003B2002B0DDB094A1168094B0B400004034313601268074B1340984203D0012002E0022000E000207047C04614002E40FFFF00800000FF7F002809D10C4B1968B3
:401740000C4A0A401A601B68DB040CD501300DE0074B1A68802149010A431A601B680B4203D1012002E0002000E000207047C04614002E40FFEFFFFF70B5841EE4B20D2CE0
:4017800035D88C1EE4B2052C03D9002B31D1012931D1032A31D8904231D3914231D31C4D2C68240AE4B20F26B44320432E68194C3440000204432C602C686040F024240192
:4017C000204220D1002B00D002234901C9B29200D2B2114319430E4A1368EE2083430B4313601368034099420FD0ED380EE002200CE002200AE0022008E0022006E00220AA
:4018000004E0022002E0012000E0002070BDC04614002E40FFF0FFFF002809D10B4B1A6810218A431A601B6819420BD001300CE0064B1A6810210A431A601B68194203D158
:40184000012002E0002000E00020704714002E40002809D10B4B1A6801218A431A601B6819420BD001300CE0064B1A6801210A431A601B68194203D1012002E0002000E082
:401880000020704714002E40054B18601B681B041B0C984201D0012000E000207047C04604002E4010B503785B01204A944663441F4A41680A431A6003785B0163441968E4
:4018C0001C4A11401C4A44682240914224D182681A6103785B0163441A6981688A421DD1C2685A6103785B0163445A69C1688A4216D1012252429A6103785B0163449A69B7
:4019000001320FD10022DA6103785B016344DB69002B09D0012008E0012006E0012004E0012002E0012000E0002010BDA0002E40800080007F007F007FFF7FFF10B5037823
:401940001B01104A944663440F4A41680A431A6003781B01634419680C4A11400C4A4468224091420AD182685A6003781B0163445A6883689A4203D0012002E0012000E0ED
:40198000002010BD20002E4008008000F7007F00F7FF7FFF70B500240AE063001B199800104B1818FFF7CAFF002805D10134E4B2072CF2D9002500E00125002D0BD00FE0A5
:4019C000230108486030C018FFF76CFF002806D10134E4B200E000240F2CF1D900E00125280070BD6C3F0000002809D10C4B19680C4A0A401A601B689B040CD501300DE0BC
:401A0000074B1A68802189010A431A601B680B4203D1012002E0002000E000207047C04614002E40FFDFFFFF10B580221206344B1A60344A136801218B431360C8231B0222
:401A400000E0013B002B03D02E4A1268D207F8D4002B4AD01C2000F0A5FE2B491C2000F0ADFE03211C2000F0BBFE1320FFF748FE00281AD1FFF760FE002818D1FFF7B4FFBD
:401A8000002816D10023022202210B30FFF774FE002810D10130FFF7BFFE00280DD1FFF7D7FE00280BD001230AE0012308E0012306E0012304E0012302E0012300E00023F0
:401AC000002B14D1FFF766FF002812D10F48FFF7DBFE00280FD10B4B1A6807218A431A601B68194209D0013008E0012006E0012004E0012002E0012000E0002010BDC04628
:401B000000042E4010002E40391B00000110000010B5084B1B78002B02D1FFF785FF00E00020002804D10122024B1A70FFF7C4FD10BDC046C10100207047C046F8B54F46CB
:401B40004646C0B4040001200023984691E04C4B1B6832041A427AD12379002B01D1002701E08027BF036379002B07D12B01454A94466344226852055A6009E080235B032D
:401B80001F432B013F4A944663442268D2005A60A379072B03D81B041F43B94603E080231B031F43B946E379002B03D004234A461A43914600232AE0032B13D92801324A98
:401BC00094466044026894465907CA1AD1003831FF228A4067469743E268D25C8A403A43026012E02801274A94466044826894465907CA1AD1001831FF228A406746974374
:401C0000E268D25C8A403A4382600133DBB2A279934201D2072BCFD91C2000F0C3FD2B01184A94466344194A4F4617431F60227A002A04D0196803220A431A6003E019686E
:401C400001220A431A601C2000F0A2FD00207600F6B2002807D00135EDB201E001260025072D00D873E7002806D043460133DBB298464346022BF1D90CBC90469946F8BD32
:401C800008002E4020002E402C002E400800800010B50A2000F07CFD10BDC04610B500F091F810BD10B500F01FF810BD10B5054A1368802109060B431360FFF7E9FFFFF75B
:401CC000EDFF10BD0000254010B5064B1B78002B04D1FFF7E7FF0122024B1A70FFF7E6FF10BDC046C401002070B51E4A1E4B1A6000241E4B1C601E4A1E4B1A601E4B1F4A1E
:401D0000136007211E4A11601E4A146006391E4A11601E4A13601E4B1C6004251D4B1D600A2000F03FFD03210A2000F059FD1A490A2000F043FD194B1C60194B1C60194BA2
:401D40001C60194B1C60194B1D60194B1C601A68184B1A80184B1C60184B1C60184B1C7070BDC0460B000002000025404000254001000A0048002540070000800003254029
:401D8000040325401003254044002540000225400402254050002540FD2C0000880E2540C80E2540480F2540080F2540C80F2540880F2540CC010020D0030020B803002085
:401DC000CD03002005490B68F0229343603A13430B60034B1A88034B1A60704700030240CC010020880F254070B50500002402E000F076FF0134285D0028F9D170BDC046DE
:401E0000024B1868800801231840704704040440024B1868C00801231840704704040440024B1868000901231840704704040440024B1868400901231840704704040440D0
:401E4000034A117880235B420B43DBB21370704772000F40014B18707047C04684000F40014B1878C0B2704764000F4010B50100014800F05DFE10BD22000F4010B50248B3
:401E800000F060FE10BDC04642000F4010B50100014800F04DFE10BD02000F4010B501E0FFF7ECFFFFF7DCFF0307F9D410BDC04610B50B4C2000FFF7D9FF2000FFF7E6FF01
:401EC00000F007FF074A117810230B43DBB2137000F003FFFFF7E2FF0120FFF7BBFF10BD3F420F0094000F4010B5064B1B78002B04D1FFF7DDFF0122024B1A70FFF7A0FF9D
:401F000010BDC046CE010020014BD8647047C0460000002010B5040000F0DBFE044A13689B009B08A4071C43146000F0D6FE10BD00E400E00822014B1A60704700E100E0A6
:401F40000822014B1A60704780E100E010B50400FFF7F6FF2000FFF7D7FF0320FFF7DAFFFFF7E8FF10BDC04604490A68D2B204239A43800018401043086070470000044062
:401F800004490A68D2B202239A434000184010430860704700000440044A1368DBB201218B430840184310607047C0460000044004490A68D2B208239A43C000184010437E
:401FC0000860704700000440114B1B68022B1AD80F494A68581C086050008218D3189B000C4A9B580C4A1268D3400C4A12681340D8B20B4A1070180AC0B210701B0C8B6056
:40200000DBB2137002E01122064B1A707047C046D001002090030020A00300209C03002041000F4071000F402122164B1A70164A536801335360002B1FD1DBB2134A1370B5
:40204000114A53685900CB189B0011495B5811490968CB40104909680B40D8B20F490870180AC0B208701B0CD360DBB20B70012313600922034B1A7002E00122084B1A6047
:402080007047C04671000F40D001002073000F4090030020A00300209C03002041000F40A4030020002804D00023114A5360114A13700F4843685A00D3189A000E4BD358F4
:4020C0000E4A1268D3400E4A12681340D9B20D4A1170190AC9B211701B0CDBB21370012303601922084B1A700022084B1A607047D001002073000F4090030020A0030020AF
:402100009C03002041000F4071000F40A403002010B500210BE04B005B189B189B00054C1851013200E00022022AF4D901310029F9D010BD9003002010B5FFF7E9FF01209C
:40214000FFF7B0FF10BDC04600280BDB002909DB022807DC002905DC4B00591808188000014BC2507047C0469003002002280FD002D8012805D020E0032810D0042815D08E
:402180001BE0114A114B1A600122114B1A601AE0104A0E4B1A6002220D4B1A6013E00E4A0A4B1A6003220A4B1A600CE00B4A074B1A600422064B1A6005E0094A034B1A60D1
:4021C0000022034B1A6070477F7F7F009C030020A00300203F3F3F001F1F1F000F0F0F00FFFFFF0010B50322144B1A702E32144B1A70093A134B1A70103A134B1A70134C23
:40220000012323700020FFF783FF00232370002000F026F80020FFF7A9FF0D4B1B7D002B08D101220A4B1A750A4800F067F90A4800F096F90122094B1A6010BD90000F40A2
:4022400040000F4020000F4030000F4071000F40D001002029200000C91F0000A403002000280CD10C4A0D4B1A6005220C4B1A6002320C4B1A6019320B4B1A600BE0064AB8
:40228000064B1A600522064B1A600232054B1A601932054B1A607047AC420000B0030020A8030020B4030020AC0300200004000C014B18607047C046080220400004000C5A
:4022C000014B18607047C046140220400004000C014B18607047C0460C02204070B504000D0000F0F6FCAC40024B1C6000F0F5FC70BDC0460800204010B500F0EAFC064AB4
:40230000116810230B43136000F0E7FC18211020FFF7E4FF10BDC04600002040014B18607047C0463802204010B50D4C8023DB042360236823600020FFF7B8FF23682360C1
:402340000C22084B1A600120FFF7E8FF3122064B1A60FF20FFF7B2FF0020FFF7B7FF10BD00022040240220402802204010B5064B1B78002B04D1FFF7D7FF0122024B1A7006
:40238000FFF7BAFF10BDC046E501002004490A68D2B208239A43C00018401043086070470005044004490A68D2B202239A434000184010430860704700050440034A117809
:4023C00080235B420B43DBB21370704775000F40014B18707047C04687000F40014B1878C0B2704767000F40014B18807047C0460C100F40024B1B78024B188880B27047E0
:4024000006000F408C100F40014B188880B270478C100F40014B18807047C0464C100F40014B18807047C0466C100F4010B501E0FFF7EAFFFFF7D2FF4306F9D410BDC046AF
:4024400010B5134B1A7807218A431A701A7804398A431A70FFF7EAFF802424022000FFF7D9FF2000FFF7C0FF0020FFF7B1FFFFF7B5FF2000FFF7D4FF00F02BFC054A11784E
:4024800010230B43DBB2137000F027FC10BDC04675000F4097000F4010B5064B1B78002B04D1FFF7CDFF0122024B1A70FFF786FF10BDC046E6010020014B18647047C046BC
:4024C0000000002010B5040000F003FC044A1368C0218B43A4011C43146000F0FEFB10BD00E400E00122014B1A60704700E100E00122014B1A60704780E100E010B504008F
:40250000FFF7F6FF2000FFF7D7FF0320FFF7DAFFFFF7E8FF10BDC046014B58647047C0460000002010B5040000F0D3FB044A1168044B0B40A4031C43146000F0CEFB10BD55
:4025400000E400E0FF3FFFFF0222014B1A60704700E100E00222014B1A60704780E100E010B50400FFF7F6FF2000FFF7D5FF0320FFF7D8FFFFF7E8FF10BDC046074B1B78F4
:40258000272B05D8064B1B78DBB2064A136004E0054B1B78DBB2034A1360704702F3FF0F42F3FF0F20FF0B40C1F1FF0F00230AE0204A12683F210A401F49C95C8A4201D1B7
:4025C000033303E001332D2BF2D903231B4A12781B2A16D8302B05D1194B1B78DBB2194A136006E0182B04D1174B1B78DBB2154A136016490B681F229343173A13430B604B
:4026000016E0302B05D1124B1B78DBB20D4A136006E0182B04D10F4B1B78DBB2094A13600A4A13681F218B430B4909780B4313607047C0462CFF0B408C44000002F3FF0F75
:402640003FF3FF0F28FF0B403EF3FF0F34FF0B40C3F1FF0FC2F1FF0FC0F1FF0F00230AE00D4A12683F210A400C49C95C8A4201D1033303E001332D2BF2D9032308490868B2
:40268000084A02400A60084A944663441B78DBB2064A13607047C0462CFF0B408C44000000002240FFFFFFBF4DF3FF0F28FF0B40034B18688023DB05184000D00120704734
:4026C0000000224010B50B4A136801218B431360094B1A68094B1A60094A12685A60FFF765FFFFF74BFF074A116802230B43136010BDC04650000C4034FF0B40E801002015
:4027000020FF0B4024002C4030B500230AE0134A12683F210A401249C95C8A4201D1033303E001332D2BF2D903230E490A68022082430A600C4C21681F2291430B480568A8
:402740002A400A4322604168094A1160094A944663441B78DBB2084A136030BD2CFF0B408C44000024002C4034FF0B40E801002020FF0B404DF3FF0F28FF0B40034B1B68B5
:402780000220184000D001207047C04624002C401F2318401E3B8340014A13607047C04600E100E01F2318401E3B8340014A13607047C04680E100E001BE704770B504005E
:4027C0000D001F2802D90020FFF7F6FF1034A40080239B059C4664442068256070BDC04670B504000E00032902D90020FFF7E4FF1F2C02D90020FFF7DFFF03252540ED00DF
:40280000063500F066FAA408A400074B9C46644421680323AB4099430B003100A9401943216000F05AFA70BD00E400E010B5040006E0084B586800F043FA074B9C46644469
:4028400080231B029C42F4D8024B9868604300F037FA10BDD80000200080FFFF70B582B000F084F9002862D000F033FA0500314A116801230B43136000230AE02E4A126882
:402880003F210A402D49C95C8A4201D1033303E001332D2BF2D903230021294A1160294A1268D20606D1274802681F318A4313390A430260244C2168244A1140244A5A434A
:4028C0008023DB019C466244D20B013A5205520D0B001343A0225203134323601D4B1B680193302000F046FA1B4A13688021C9050B4313602668194B1E40002407E0012027
:40290000FFF794FF1034A30533430F4A1360EE2CF5D90120FFF78AFFFF239B051E430A4B1E60019A0B4B1A60280000F0D6F902B070BDC04650000C402CFF0B408C44000049
:4029400028FF0B4034FF0B400800224000F800C040420F003000104000002240FFFF3FC010B5034B1B7B584300F0AAF910BDC046D8000020F0B55F4656464D464446F0B48C
:4029800083B0040000F0A5F90190FFF791FE002804D0FFF763FE01239A4601E000239A46FFF7ECFE002808D0182C01D0302C07D1FFF7AAFE01239B4604E000239B4601E06C
:4029C00000239B46E61E2D2E74D8464B1B78DBB29C4208D8444B1B78DBB29946434B1B78DBB2984631E0424B1B78DBB29C4208D8404B1B78DBB299463F4B1B78DBB2984611
:402A000023E03E4B1B78DBB29C4208D83C4B1B78DBB299463B4B1B78DBB2984615E03A4B1B78DBB29C4208D8384B1B78DBB29946374B1B78DBB2984607E0364B1B78DBB240
:402A40009946354B1B78DBB29846344B9F5D2F2F09D92A2C07D91922314B1A60052000F02FF9192503E02E4B1D683F231D40BD4206D92A4B9A5D2A4B1A60052000F020F955
:402A8000254B9C4664442378DBB2264A1360264B4A461A60254B42461A600520FFF760FFBD420AD21D4B9A5D1D4B1A60052000F007F902E00020FFF77FFE5346012B01D16D
:402AC000FFF7CCFE5B46012B01D1FFF7FBFD019800F003F903B03CBC90469946A246AB46F0BDC04640F3FF0F41F3FF0F42F3FF0F43F3FF0F44F3FF0F45F3FF0F46F3FF0F3C
:402B000047F3FF0F48F3FF0F49F3FF0F4AF3FF0F4BF3FF0F4CF3FF0F4DF3FF0F8C4400002CFF0B4028FF0B401CFF0B4020FF0B40CBB203700B0ADBB24370090CC9B281703A
:402B40007047C0460378427812021A4383781B041A4310007047C046034B1868C0231B02184000D00120704700010B40034B1B68002B01DA012000E0002070470000224083
:402B800010B500F0A6F8044A1368C02109020B43136000F0A2F810BD00010B4010B500F098F808490A68084B1A408024E40122430A600A6813408022120213430B6000F070
:402BC0008CF810BD00010B40FF3FFFFF70B5050000F07FF80400FFF7BFFF002803D0FFF7DDFF012100E0002108482840084A1568084B2B40184310601368012901D1FFF746
:402C0000BFFF200000F069F870BDC0460404040010020B40FBFBFBFF10B5244B1B685B0715D5234B5B685B070ED5224B596A042001401F4C62688A4362605A6A82435A62C2
:402C40009B69002B00D098470420FFF7BFFF174B1B685B0518D5164B5B685B0510D5154B596A8022D2001140114842688A434260596A114A0A405A62DB69002B00D0984767
:402C80008020C000FFF7A2FF084B1B685B030CD5074B5B685B0304D5064B1B6A002B00D098478020C002FFF791FF10BD10020B40EC00002008020020FFFBFFFF00000000CC
:402CC0000230800803D00138FDD1C046C046C0467047EFF3108072B6704780F310887047044B1B681F221340082BF9D0024B18607047C046080225404002254010B5144B46
:402D00001B68002B00D09847124B1B685B071DD5114B1B680133112B00D100230F4A1268934205D10E4B1B6820220E4B1A7006E00B4A1268D2B20C49CA54074A13600B4B7A
:402D40001B68DB06E4D10422094B1A6010BDC046C8010020CC0F2540D0030020B803002040032540CD030020BC03002008032540C00F254070B50400FFF7ABFF0500102C57
:402D800005D8104A136803218B43136016E0202C07D80C490B6803229343023A13430B600CE0302C07D807490B6803229343013A13430B6002E00020FFF7FEFC2800FFF72A
:402DC0008CFF70BD30001040002243088B4274D303098B425FD3030A8B4244D3030B8B4228D3030C8B420DD3FF22090212BA030C8B4202D31212090265D0030B8B4219D3B8
:402E000000E0090AC30B8B4201D3CB03C01A5241830B8B4201D38B03C01A5241430B8B4201D34B03C01A5241030B8B4201D30B03C01A5241C30A8B4201D3CB02C01A52414F
:402E4000830A8B4201D38B02C01A5241430A8B4201D34B02C01A5241030A8B4201D30B02C01A5241CDD2C3098B4201D3CB01C01A524183098B4201D38B01C01A52414309A3
:402E80008B4201D34B01C01A524103098B4201D30B01C01A5241C3088B4201D3CB00C01A524183088B4201D38B00C01A524143088B4201D34B00C01A5241411A00D20146B2
:402EC000524110467047FFE701B5002000F0F0F802BDC0460029F7D076E7704703460B437FD4002243088B4274D303098B425FD3030A8B4244D3030B8B4228D3030C8B42BC
:402F00000DD3FF22090212BA030C8B4202D31212090265D0030B8B4219D300E0090AC30B8B4201D3CB03C01A5241830B8B4201D38B03C01A5241430B8B4201D34B03C01AFF
:402F40005241030B8B4201D30B03C01A5241C30A8B4201D3CB02C01A5241830A8B4201D38B02C01A5241430A8B4201D34B02C01A5241030A8B4201D30B02C01A5241CDD255
:402F8000C3098B4201D3CB01C01A524183098B4201D38B01C01A524143098B4201D34B01C01A524103098B4201D30B01C01A5241C3088B4201D3CB00C01A524183088B427D
:402FC00001D38B00C01A524143088B4201D34B00C01A5241411A00D201465241104670475DE0CA0F00D04942031000D34042534000229C4603098B422DD3030A8B4212D345
:40300000FC22890112BA030A8B420CD3890192118B4208D3890192118B4204D389013AD0921100E08909C3098B4201D3CB01C01A524183098B4201D38B01C01A52414309FC
:403040008B4201D34B01C01A524103098B4201D30B01C01A5241C3088B4201D3CB00C01A524183088B4201D38B00C01A5241D9D243088B4201D34B00C01A5241411A00D28C
:403080000146634652415B10104601D34042002B00D54942704763465B1000D3404201B5002000F005F802BD0029F8D016E770477047C046014B18687047C04654010020E9
:4030C0000E4B70B500251E000D4CE41AA410A54204D0AB00F35898470135F8E701F008FA084B00251E00084CE41AA410A54204D0AB00F35898470135F8E770BDFC440000BE
:40310000FC440000FC44000004450000002310B59A4203D0CC5CC4540133F9E710BD03008218934202D019700133FAE7704700000EB410B59DB002A9029008610B48822402
:4031400088604861012040421FABC881084804CBA400006801938C8100F06EF80023029A13701DB010BC08BC03B01847FFFFFF7F54010020F0B58E6885B007000C000392CC
:4031800001939E4243D890238A89DB001A423ED003250969236801985B1A029363695D43EB0F5D19029B6D1001331B18AB4200D91D00530510D52900380000F037FB061E89
:4031C00014D0029A2169FFF7A1FFA289194B134080221343A38112E02A00380000F086FB061E0CD12169380000F0D4FA0C23402201203B60A38940421343A38117E0029BE2
:403200002661F61826606561019EED1AA560019BB34200D21E0032000399206800F0A5FA0020A3689B1BA36023689E19266005B0F0BDC0467FFBFFFFF0B59FB002900593F2
:403240008B890F0016001B0610D50B69002B0DD1402100F0EBFA38603861002804D10C23029A01381360D8E040237B61002306AD6B6120336B761033AB7634002378002B8C
:4032800003D1A31B049312D003E0252BF9D00134F4E7A31B320039000298FFF76BFF431C00D1B4E06A69049B944663446B612378002B00D1ABE00122002352426A6002A9E0
:4032C0005432521801342B60EB60AB601370AB65534E21780522300000F03CFA002807D00123801B83402A68013413432B60EFE72B68DA0604D55322202102A81218117028
:403300001A0704D553222B2102A81218117022782A2A03D0099B00200A210EE0059A111D12680591002A01DB099204E05242EA60022213432B6001340BE02278303A092A43
:4033400004D84B4301349B180120F6E7002800D0099323782E2B1ED163782A2B0AD1059B02341A1D1B680592002B01DA01235B42079310E000230A201A0001346B60217803
:403380003039092904D84243013452180123F6E7002B00D00792234E21780322300000F0D9F9002806D04023801B83402A68013413432B60217806221B48661C297600F020
:4033C000C9F9002812D0194B002B06D10722059B073393430833059314E005AB00933A00134B2900029800E000BF07E005AB00933A000F4B2900029800F08AF80390039B9A
:40340000013304D06B69039A9B186B6135E7BB890B985B0601D5012040421FB0F0BDC046BC440000C2440000C64400000000000075310000F7B5170001938A680B69009032
:403440000C00934200DA130022003B6043321278002A01D001333B6023689B0602D53B6802333B60062523681D401ED0230043331B785A1E9341226892061CD53020E118AD
:403480004331087021005A1C45310978A2184332023311700FE022000123193201990098089EB047431C0ED00135E3683A689B1A9D42F0DBDAE72200019943320098089D70
:4034C000A847431C02D10120404220E006232068E1683A6803400025042B03D18D1AEB43DB171D40A3682269934201DD9B1AED180027BD420AD0220001231A320199009816
:40350000089EB047431CDED00137F2E70020FEBDF0B58BB006920A0043320793059004920A7E0C00109B6E2A00D1ABE011D8632A22D009D8002A00D1B5E0582A00D0C5E036
:4035400045310A70814A4FE0642A1DD0692A1BD0BCE0732A00D1AAE009D86F2A29D0702A00D0B3E0202209680A43226037E0752A1FD0782A33D0A9E00E001A684236111DD9
:40358000196013683370A4E021681A68080606D4490604D5111D19600023D55E02E0111D19601568002D3BDA2D23049A6D42137036E021681A68080606D4490604D51568C2
:4035C000111D1960ADB202E0111D196015685F4B227E039308276F2A1DD00A271BE022007821453211705A4A19680392081D226818600D68100602D4500600D5ADB2D307A5
:4036000002D520231A4322601027002D03D1202322689A4322602300002243331A7002E00A274A4B03936368A360002B09DB0422216891432160002D05D1049E002B11D018
:403640007BE0002D79D0049E28003900FFF742FC039B013E5B5C280033703900FFF7B4FB051EF1D1082F09D12368DB0706D563682269934202DC3023013E3370049B9B1B34
:4036800023612BE009681A68080607D4490605D5111D19601368A28A1A8004E0111D1960136862691A600023049E236116E01A68111D1960166800216268300000F04AF810
:4036C000002801D0801B6060636803E0260042363270012323610023049A1370079B09AA00932100069B0598FFF7A4FE431C02D10120404227E02369320006990598079D43
:40370000A847431CF4D0236800259B070FD4099BE068984217DA180015E022000123193206990598079EB047431CE1D00135E368099A9B1A9D42F0DBE9E72600039B423676
:403740001B7833708EE70BB0F0BDC046CD440000DE440000C9B28218904204D003788B4202D00130F8E70020704710B5884202D98B18984201D3002305E09B1A013A08D3B3
:40378000995C8154FAE7934203D0CC5CC4540133F9E710BD70B50500002944D00C1F2368002B00DAE418280000F0D8F81E4A13681100002B02D16360146031E0A3420DD98A
:4037C0002268A018834203D118685B688218226063600C6024E0A24203D813005A68002AF9D11E689819A0420BD12168711858181960824214D110685268411819605A607D
:403800000EE0A04202D90C232B6009E021686018824203D1106852684118216062605C60280000F09CF870BD34020020032370B5CD1C9D43083506000C2D01D20C2501E073
:40384000002D01DBA94202D90C23336048E0300000F084F8234B1C681A002100002913D00B685B1B0DD40B2B02D90B60CC181EE08C4202D1636813601AE04B6863600C0037
:4038800016E00C004968E9E7174C2368002B03D1300000F051F820602900300000F04CF8431C18D00323C41C9C43A0420DD12560300000F054F8200007220B30231D9043AE
:4038C000C31A0ED05A42E2500BE0211A300000F033F8431CEBD10C233000336000F03FF8002070BD3402002030020020F8B506000C001500002904D11100FFF797FF040032
:4039000018E0002A03D1FFF745FF2C0012E000F027F885420ED929003000FFF787FF071E07D021002A00FFF7F1FB21003000FFF731FF3C002000F8BD002370B5064C050057
:4039400008002360FDF740FD431C03D12368002B00D02B6070BDC046D4030020704770470B1F1A68101F002A04DA891804390B68D01804387047000000000000427974650C
:4039800025642025782020200000000049443A25782025782025780D0A00000044697020416464723A202578200D0A0000300F40000800400F400008001810182014300CB8
:4039C000800F840D8503876F05040F011310150817E619401D8021402201238025C3273829012A01300131183320350737C839203E01402545514720482349FF4AFF4BFFD2
:403A00004DA0540F580459045A045B045C905D195F016040614062C064C066C08257830184A0865F88578A088C048E509402966097019A089C019E80AF01B101B230B40F84
:403A4000B6C0BA88BF01C025C50CC60BC70EC815C9FFCAFFCBFFD804D904DA04DB04DC09DD09DF01E2C0E440E501044205140D200E2212441A401D201E2220042180220A93
:403A8000278029202B642D4030203104328235083608380439403B803E0240144308452048224A804E024F085003574859805A245B025C90650867806D426F0176027704DF
:403AC000838088108980C0F0C2E0C40ACA17CC4FCE8AD024D218D63FD8C00249030F04A405730653086D0A120E89119E13601530160917C9180C1E09220C24022594261031
:403B0000276029FD2B022DCF2F3030C0323833FF340738083A023F04404249FF4AFF4BFF4F0150185280580459045A045B045C095D335F01604062406440654066806880BF
:403B40006A806C806E8081808477858089808CCC8D808E23940396FC970F99379F80A16CA302A485A508A61AA701A8BFA95BAA40AB04ACCAAD6CAE15AF01B0F0B10FB40F8A
:403B8000B570B780B920BF40C043C9FFCAFFCBFFCD83CE03CF01D018D804D904DA04DB04DC11DD03DF01E040E240E440E540E680E880EA80EC80EE8000080302044205146E
:403BC0000B200E220F0C100412021308170519201B021C401D141F202008212022422710281429212B022C102D202F1231A032083501360A370839553C0A3E044104428070
:403C00004684695576C0808090029240944896249B059D149E449F02A181A211A304A410A720A804AC80AD20C0F5C2E4C437CA7FCCCECECFD0A304040D020E0112011402C4
:403C400017041A011F033101320233023401350436043E543F04404345EC4702481349FF4AFF4BFF4D834E034F01501854015604580459045A045B045C105D335F016040A7
:403C8000624064406540668068806A806C806E808208857F868088148A208C74900491C59240933A9401970199969A039B689C149E20A201A440A50EA604A7F0A870A9FE80
:403CC000AB01ADA3AE70AF5CB001B202B40CB6F0B7FFBE01BF40D280D604D804D904DB04DC01DD10DF010004030104020510071209050B040C010E2A164A17081809190893
:403D00001C021D821E2820502220230824022C012D202F1230083280362738403C083E084184428249055104520459055A405FA06201648076408E019004924093049408DB
:403D400095089620972099209A809B119C809E049F0AA004A101A202A302A411A804B640C0F5C2FEC4F0CA70CCEACE48D003D63BD881E640EA1405022601280229042D012A
:403D8000300231023301340135043E013F104046410149FF4AFF4BFF4DA04F015018580459045A045B045C215D015F016040628064406540668068406A806C406D206E800B
:403DC00084018D0C91029B039C089D089F04A003A20CA30CA403B002B101B208B304B401B508B604B702B822BE14BF54C042C101C532C6C4C70EC81FC9FFCAFFCBFFCDAF90
:403E0000CE07CF01D018D40FD804D904DA04DB04DC11DD11DF05E040E280E440E540E680E840EA80EC40ED20EE80000801040A0110A014041708180419051A091D101E804C
:403E40001F10202022112302261027A029012D802F0830303180320138403F0840044182458248A04E045294581059045B425C015D085EA06214790481808708880490417D
:403E80009620972099089B409D109FA0A004A182A30CA410A680A904AB04AC08AD20AF02B308B410B740C004C201C46CCA31CC0DCE48D09DD220D6FFD806DE02EA066B608B
:403EC0006C806F088320DAC0DC60E28083409F40A480AB08E680EE8001010208051052208C80A220A480B620C0D0D420820885019101A208A910E030EC20002005200A40A8
:403F00000B040F80C003C20E924093049920A010AB408810A010AA40AF04B120E601EA04100A1101120E000008000F4051300F4038310F406F320F403F330F4058340F4051
:403F400048350F405A360F404A370F4007400F4006410F400A420F4007430F4007450F4005460F4007470F4003600F400000000008008800000000000100000008008800C1
:403F8000000000000200000008008800000000000300000008008800000000000400000008008800000000000500000008008800000000000600000008008800000000001D
:403FC00007000000080088000000000000000000A8008000FFFFFFFF0000000001000000A8008000FFFFFFFF0000000002000000A8008000FFFFFFFF0000000003000000B8
:40400000A8008000FFFFFFFF0000000004000000A8008000FFFFFFFF0000000005000000A8008000FFFFFFFF000000000600000000000000000000000000000007000000FE
:4040400000000000000000000000000008000000000000000000000000000000090000000000000000000000000000000A0000000000000000000000000000000B0000001A
:404080000000000000000000000000000C0000000000000000000000000000000D0000000000000000000000000000000E0000000000000000000000000000000F000000CA
:4040C000000000000000000000000000FFFF0000FFCC0000FF990000FF330000FF000000B3006600990099006600B3003300CC001919B30000339900004099000066990042
:404100000099990000CC990000E6660000FF000033FF000066FF000080FF000099FF0000B2FF0000CCFF0000E5FF000000000000000055000000AA000000FF00550000003C
:40414000550055005500AA005500FF00AA000000AA005500AA00AA00AA00FF00FF000000FF005500FF00AA00FF00FF0000550000005555000055AA000055FF0055550000A6
:40418000555555005555AA005555FF00AA550000AA555500AA55AA00AA55FF00FF550000FF555500FF55AA00FF55FF0000AA000000AA550000AAAA0000AAFF0055AA000016
:4041C00055AA550055AAAA0055AAFF00AAAA0000AAAA5500AAAAAA00AAAAFF00FFAA0000FFAA5500FFAAAA00FFAAFF0000FF000000FF550000FFAA0000FFFF0055FF000086
:4042000055FF550055FFAA0055FFFF00AAFF0000AAFF5500AAFFAA00AAFFFF00FFFF0000FFFF5500FFFFAA00FFFFFF00FF800000FF008000FF00FF008000FF000080FF00F2
:4042400000FF8000FF0000002020200000002000000000100000000000000000000000000000000000000000000000000000FF000010F0000020E0000030D0000040C00031
:404280000050B0000060A00000709000008080000090700000A0600000B0500000C0400000D0300000E0200000FF0000000000000000005F00000007000700147F147F1458
:4042C000242A7F2A12231308646236495522500005030000001C2241000041221C00082A1C2A0808083E080800503000000808080808006060000020100804023E514945C4
:404300003E00427F400042615149462141454B311814127F1027454545393C4A49493001710905033649494936064949291E003636000000563600000008142241141414F8
:40434000141441221408000201510906324979413E7E1111117E7F494949363E414141227F4141221C7F494949417F090901013E414151327F0808087F00417F41002040B7
:40438000413F017F081422417F404040407F0204027F7F0408107F3E4141413E7F090909063E4151215E7F09192946464949493101017F01013F4040403F1F2040201F7F51
:4043C0002018207F63140814630304780403615149454300007F4141020408102041417F000004020102044040404040000102040020545454787F48444438384444442014
:40440000384444487F3854545418087E090102081454543C7F0804047800447D40002040443D00007F10284400417F40007C041804787C0804047838444444387C14141427
:4044400008081414187C7C080404084854545420043F4440203C4040207C1C2040201C3C4030403C44281028440C5050503C4464544C44000836410000007F000000413638
:40448000080008082A1C08081C2A0808030405060708090A0B0C0E0F101112131415161718191B1C1D1E1F2021222325262728292A2B2E2F3031323334354300232D302B5A
:4044C0002000686C4C00656667454647003031323334353637383941424344454600303132333435363738396162636465660000F8B5C046F8BC08BC9E4670473903000072
:4045000041140000F8B5C046F8BC08BC9E4670471103000028450000C000002098000000800200000000000000000000FF7F000001000000F4010000FFFF0000D803002078
:40454000010000000000204E409C000028000000005A6202F0000000040404000000000000000000000000000000000000000000000000000000000000000000BA44000010
:40458000000000000000000000000000000000000000000000000000000000000000000000000000000000000000000000000000000000000000000000000000F4000020E7
:4045C00000000000000000000000000000000000000000000000000000000000000000000000000000000000000000000000000000000000000000000000000000000000BB
:40460000000000000000000000000000000000000000000000000000000000000000000000000000000000000000000000000000000000000000000000000000000000007A
:40464000000000000000000000000000000000000000000000000000000000000000000000000000000000000000000000000000000000000000000000000000000000003A
:4046800000000000000000000000000000000000000000000000000000000000000000000000000000000000000000000000000000000000000000000000000000000000FA
:020000040003F7
:0200000490303A
:02000000AFE36C
:0200000490402A
:4000000000000000000000000000000000000000000000000000000000000000000000000000000000000000000000000000000000000000000000000000000000000000C0
:400040000000000000000000000000000000000000000000000000000000000000000000000000000000000000000000000000000000000000000000000000000000000080
:0200000490501A
:0C0000000002101111A000011027C183A4
:0200000490600A
:0100000001FE
:00000001FF