:400000000080002011000000FD0B0000FD0B000010B500F013FEC04610B512222C4B1A60302002F039F82B4A2B4B1A6000242B4B1C602B4B2B4A1A60802252002A490A6025
:400040002A4919602A482B4908602B4919602B490A602B4A1A60C02292002A490A602A4919602A490A602A4A1A6088214901294A1160294A1A60D0214902284A1160284A2F
:400080001A6082221206274B1A608022D202264B1A604222254B1A607E32254B1A607F3A244B1A600232244B1A600132234B1A600132234B1A600132224B1A602249082033
:4000C00001F00EFF082001F0F5FE204B1C6010BD300010400600008004010B40000301400000014040FF00800803014042FF008000FF520700050140C0FF00800403014076
:4001000041FF00800C03014043FF00801003014044FF00801403014045FF00801803014046FF008008010B4000010B40580101405401014050010140400101403C01014037
:40014000280101400C0101403D2300000C020B4010B572B601223F4B1A7000240FE03E486200131959000B00411889881A5AC31858880004104300F00DFD0134E4B2012C7D
:40018000EDD935490C3135485C3000F0E9FCE0221201334B1A800122324B1A70324A334B1A60AA22324B1A60324A334B1A6099231B04324A1360324A1360324A1360324ABA
:4001C0001360324A1360324A13608022D205314B1A60314A314B1A600F23314A1360314A1360314803783C218B4314221343DBB203702E4A107816230343DBB213702C4B0F
:4002000019602C4A2C4B1A6080222C4B1A60343A2B4B1A602B4A2C4B1A6040222B4B1A6042322B4B1A602B4A2B4B1A6002222B4B1A603C322A4B1A602A4A2B4B1A60052270
:400240002A4B1A602A4A2B4B1A60FFF7E5FE00F0B7FC10BD1C700F40903300009038000000600F4002600F4099EE00300003024000040240080800000005024000500F40E4
:4002800010500F4020500F4040500F4050500F4070500F4078500F4004040444D8300F402000104000800F4001700F4000700F4000000440B62D01000800044018010440A6
:4002C0000002044080042000080204401802044000030440B18DC000080304401803044000040440B12401000804044000050440B60D00000805044010B5064C2378002BCD
:4003000007D1054B002B02D0044800E000BF0123237010BD5001002000000000F02F0000084B10B5002B03D00749084800E000BF07480368002B00D110BD064B002BFBD07A
:400340009847F9E70000000054010020F02F0000C00000200000000030B583B001F07EF901901A4B1A7801321A705A7801325A709B780B2B00D90023144CA370144B186E19
:4003800001F0D2FAA078032102F0A0F8C5B2FF220021002000F0DEF902000021280001F0D7FA012001F07CFAA3780133A3702378132B09D900220021002000F0D1F9002229
:4003C0000021002000F0F8F903B030BD6C010020943A000010B500220021002000F0C0F900220021002000F0E7F9002000F0AAFC10BDC04670B562B6042000F081F901F097
:4004000017F9174DE87000F0FBFFEB78DB08012401263340DB43D8B201F0C8F9E87880086040304001F0AAF9E87840086040304001F098F9E8786040304001F0ABF9E9787B
:40044000C9B20122042000F0E3F901F04BF900F0ADFC044800F068FC034801F075F970BD6C010020D50300005903000030B585B0FFF7C0FFFF220021002000F06BF900F073
:4004800053F9002300931022FF3201AB1A800124254B1B78DBB2042B12D004D8002B25D0012B35D03CE0052B36D0FF2B38D100F03FF800F093F8040004221B4B1A70E7E78F
:4004C00000F0D6F8184D28702B78DBB22200042101A800F009FB01A800F028FA2B78DBB2FF2BD5D10422104B1A70D1E700F098F803B22200042101A800F006FB01A800F000
:4005000015FA0A4801F088F80522074B1A70BFE70522054B1A70BBE70022034B1A70B7E7FF22014B1A70B3E7C4000020EC01002010B50F4801F070F80E4B1A78D2B20E4C45
:400540000E49200002F092F8200001F065F80C4801F062F801F04AF80028FBD000F08EFF084801F059F8084801F056F810BDC046F42F00006F010020EC01002030300000C4
:40058000403000007C300000B830000070B505000E0001F02BF8C0B20028FAD02870012407E001F023F8C0B20028FAD028550134E4B20D2802D0731E9C42F2DB2C19002380
:4005C000237070BD00B59BB0642101A8FFF7DEFF01A802F007F81BB000BDC04670B50C4801F01AF80B4801F017F8FFF7EBFFC4B2631EDBB23E2BF8D8FF220240064D0749A0
:40060000280002F033F8280001F006F8200070BD2431000068310000EC010020C031000070B500F02BFF0A4800F0F6FF094800F0F3FFFFF7C7FF0400074D020007492800EE
:4006400002F014F8280000F0E7FF200070BDC046D431000014320000EC0100205032000010B5024800F0D8FFFF2010BD6032000010B51C4800F0D0FF1B4800F0CDFF00F006
:40068000B5FFC0B202E000F0B1FFC0B20300303BDBB2012BF7D831280DD002D8302805D01BE032280DD0332811D016E00F4800F0B3FF002015E00E4800F0AEFFFFF7D0FFC3
:4006C0000FE00C4800F0A8FFFFF7CAFF09E00A4800F0A2FFFFF7C4FF03E0084800F09CFFFF2010BD80320000C03200000033000018330000303300004C3300006833000093
:4007000010B5040001F072F9042C00D90424200001F030F9034B186D01F006F9012001F0BFF810BD943A000070B5050001F0EEF8002808D10DE02A000021200001F008F9B6
:400740000134E4B200E00024032CF4D9012001F0A7F870BD120403021A4310000843704710B504000020134B18702000FF30FF235B0098421CD8002C0ADAD30701D50029F4
:4007800006D0002001F09EF9604200F0A1FA0FE0002C0ADD930701D5002906D0012001F091F9200000F094FA02E0002000F090FA10BDC0466C01002010B504000020134BC0
:4007C00018702000FF30FF235B0098421CD8002C0ADAD30701D5002906D0002001F07EF9604201F067F90FE0002C0ADD930701D5002906D0012001F071F9200001F05AF94C
:4008000002E0002001F056F910BDC0466C010020F8B54F464646C0B404000E00170000F013FD0F202040354D28603F2331001940334A11603B40334F3B60334C0026267065
:40084000800108434005E060304B9846A360304B1B686360200000F0C1FB01232370E6604346A3602B4B1B686360200000F0B6FB022323702B68DB06FC22D20491461343EB
:40088000E3604346A360244B1B686360200000F0A5FB032323702B689A013B6813435B05E3604346A3601D4B1B686360200000F095FB04232370E6604346A360184B1B6835
:4008C0006360200000F08AFB052323702B68DB064A461343E3604346A360124B1B686360200000F07BFB00F075FA0F491C2001F0F7FA0CBC90469946F8BDC0466402002000
:40090000680200202C03002050020020FFFF1F80A0002E40C0002E40E0002E4000012E4020012E4040012E40BD09000010B586B0002815D0038802AC029300232371637171
:400940008278A271E3716B460593C11C0822684601F07AFE200000F08DFC002802D102E0022000E0012006B010BDC046124A93780133DBB293709378DBB20F2B02D9002293
:400980000D4B9A700C4B1B78002B0BD00A4A53780133DBB253705378DBB20F2B02D90022054B5A70044A537891785B1A59424B41DBB213707047C0467101002070B58022B5
:4009C0005201444B1A60444B1B68DA0706D49A0706D45A0706D41B0706D406E0002404E0012402E0022400E003243C4B9A78D2B264013B4B9C4664442368DB0202D4616861
:400A0000490D02E06168C90889B2364B500082189000C152314A9178C9B22068000C0F2528404D0069188D005D19A8709178C9B2A5682D0E4800411888001818C570917820
:400A4000C9B2A068000CC0B24D0069188D005D1928719178C9B2A068000AC0B24D0069188D005D1968719178C9B2A568EDB2480041188800181885719178C9B2E5682D0ECE
:400A80004800411888001818C5719178C9B2E068000CC0B24D0069188D005D1928729178C9B2E068000AC0B24D0069188D005D1968729278D2B2E068C0B251008A18910033
:400AC0005B189872FFF752FF226801231343236070BDC04600002E4008002E4071010020A0002E406C02002070B504001D00012000F01EF820800223A370E01C002100F014
:400B000025F82418E57070BD70B504001D00012000F00EF820800323A37003340321200000F014F802002900200000F013F870BD80028023DB0018408901403B19400143C0
:400B40003F200240114308007047C046017001207047C0460B128354013281547047C046F0B50025002711E0BB00C658F3B2FF22964308E06A008A181478A41952782270C0
:400B80000135013BDBB2002BF4D10137112FEBD9F0BDC04610B50A00002101F05EFD10BD064B1B68002803D080221206134301E05B005B08014A13607047C04680033A4058
:400BC00010B50323084A1360084A136080221206074B1A604022074B1A600022064B1A600120FFF7DDFF10BD300030403000314000003A4000033A40000E3F4010B501F0A4
:400C0000F7FC03680C2B00D1FEE7FEE710B50300084A1068C318084A9A1A802A02DC054A136005E001F0E4FC0C2303600120404210BDC046C80000207803002070B50F4E04
:400C40000F4D13E029686B68AC68002202E001C901C30432A242FAD1E868002202E0002102C304328242FAD11035013E002EE9D101F0C4FCFFF7FAFBFEE7C0460100000043
:400C8000DC3F000010B50E4A136801218B43136000230AE0032B03D89A000A49505800E009489900094A885001332F2BF2D9FFF74FFA034A116801230B43136010BDC04668
:400CC0000000104000000000FD0B0000000000200004000C014B18607047C0464C022040014B98647047C0460000002010B5040001F07FFB044A1168044B0B40A4051C437B
:400D0000146001F07AFB10BD00E400E0FFFF3FFF0422014B1A60704700E100E00422014B1A60704780E100E010B50400FFF7F6FF2000FFF7D5FF0320FFF7D8FFFFF7E8FF59
:400D400010BDC04610B5002805DB80B2054B9C46604480B203E0034B9C46604480B200F0DFFE10BD0080FFFF024B18780F2318407047C04662000F40014B18707047C04632
:400D800082000F4010B50F20FFF7F6FFFFF7ECFF01F02FFB044A117810230B43DBB2137001F02BFB10BDC04692000F4010B500F005FF8020000200F0B3FE054B1B78002B4A
:400DC00002D10122024B1A70FFF7DCFF10BDC04675010020054B1A6801210A431A601B68194201D1012000E00020704704002E4010B50E4A0E4B1A60FFF7ECFF1C2001F039
:400E000059F80C4A116801230B43136090235B0100E0013B002B03D0064A1268D207F8D5002B01D1012000E0002010BD0110000000002E4010002E4003B2002B0DDB094A11
:400E40001168094B0B400004034313601268074B1340984203D0012002E0022000E000207047C04614002E40FFFF00800000FF7F002809D10C4B19680C4A0A401A601B68FA
:400E8000DB040CD501300DE0074B1A68802149010A431A601B680B4203D1012002E0002000E000207047C04614002E40FFEFFFFF70B5841EE4B20D2C35D88C1EE4B2052CC8
:400EC00003D9002B31D1012931D1032A31D8904231D3914231D31C4D2C68240AE4B20F26B44320432E68194C3440000204432C602C686040F0242401204220D1002B00D08B
:400F000002234901C9B29200D2B2114319430E4A1368EE2083430B4313601368034099420FD0ED380EE002200CE002200AE0022008E0022006E0022004E0022002E00120B7
:400F400000E0002070BDC04614002E40FFF0FFFF002809D10B4B1A6810218A431A601B6819420BD001300CE0064B1A6810210A431A601B68194203D1012002E0002000E027
:400F80000020704714002E40002809D10B4B1A6801218A431A601B6819420BD001300CE0064B1A6801210A431A601B68194203D1012002E0002000E00020704714002E40F5
:400FC000054B18601B681B041B0C984201D0012000E000207047C04604002E4010B503785B01204A944663441F4A41680A431A6003785B01634419681C4A11401C4A44683D
:401000002240914224D182681A6103785B0163441A6981688A421DD1C2685A6103785B0163445A69C1688A4216D1012252429A6103785B0163449A6901320FD10022DA61D8
:4010400003785B016344DB69002B09D0012008E0012006E0012004E0012002E0012000E0002010BDA0002E40800080007F007F007FFF7FFF10B503781B01104A9446634465
:401080000F4A41680A431A6003781B01634419680C4A11400C4A4468224091420AD182685A6003781B0163445A6883689A4203D0012002E0012000E0002010BD20002E4032
:4010C00008008000F7007F00F7FF7FFF70B500240AE063001B199800104B1818FFF7CAFF002805D10134E4B2072CF2D9002500E00125002D0BD00FE0230108486030C0180D
:40110000FFF76CFF002806D10134E4B200E000240F2CF1D900E00125280070BD34390000002809D10C4B19680C4A0A401A601B689B040CD501300DE0074B1A68802189019F
:401140000A431A601B680B4203D1012002E0002000E000207047C04614002E40FFDFFFFF10B580221206344B1A60344A136801218B431360F0231B0200E0013B002B03D0A8
:401180002E4A1268D207F8D4002B4AD01C2000F09BFE2B491C2000F0A3FE03211C2000F0B1FE1720FFF748FE00281AD1FFF760FE002818D1FFF7B4FF002816D10023022264
:4011C00002210B30FFF774FE002810D10130FFF7BFFE00280DD1FFF7D7FE00280BD001230AE0012308E0012306E0012304E0012302E0012300E00023002B14D1FFF766FFA4
:40120000002812D10F48FFF7DBFE00280FD10B4B1A6807218A431A601B68194209D0013008E0012006E0012004E0012002E0012000E0002010BDC04600042E4010002E406B
:40124000711200000110000010B5084B1B78002B02D1FFF785FF00E00020002804D10122024B1A70FFF7C4FD10BDC046760100207047C046F8B54F464646C0B4040001207B
:401280000023984691E04C4B1B6832041A427AD12379002B01D1002701E08027BF036379002B07D12B01454A94466344226852055A6009E080235B031F432B013F4A94462A
:4012C00063442268D2005A60A379072B03D81B041F43B94603E080231B031F43B946E379002B03D004234A461A43914600232AE0032B13D92801324A944660440268944690
:401300005907CA1AD1003831FF228A4067469743E268D25C8A403A43026012E02801274A94466044826894465907CA1AD1001831FF228A4067469743E268D25C8A403A433F
:4013400082600133DBB2A279934201D2072BCFD91C2000F0B9FD2B01184A94466344194A4F4617431F60227A002A04D0196803220A431A6003E0196801220A431A601C20DA
:4013800000F098FD00207600F6B2002807D00135EDB201E001260025072D00D873E7002806D043460133DBB298464346022BF1D90CBC90469946F8BD08002E4020002E4027
:4013C0002C002E400800800010B50A2000F072FD10BDC04610B500F0F7F810BD10B500F085F810BD10B5054A1368802109060B431360FFF7E9FFFFF7EDFF10BD0000254048
:4014000010B5064B1B78002B04D1FFF7E7FF0122024B1A70FFF7E6FF10BDC04678010020094B1A68094B1B689A420BD0074B1B680133112B00D10023054AD05CC0B2034A0F
:40144000136000E000207047480300203003002034030020074B1B68074A1268934203D3054A1068181A04E0034A10681B1A113318007047480300203003002010B50A204B
:4014800000F022FD0B4B1A680B4B1A6000220B4B1A700B4B1A68802149020A431A601968084A0A401A60084A084B1A600A2000F001FD10BD30030020480300204503002027
:4014C00004032540FFFFFEFFED0F0000C00F2540044B1B681F221340082BF9D0024B18607047C046080225404002254070B51E4A1E4B1A6000241E4B1C601E4A1E4B1A6097
:401500001E4B1F4A136007211E4A11601E4A146006391E4A11601E4A13601E4B1C6004251D4B1D600A2000F0CFFC03210A2000F0E9FC1A490A2000F0D3FC194B1C60194B0B
:401540001C60194B1C60194B1C60194B1D60194B1C601A68184B1A80184B1C60184B1C60184B1C7070BDC0460B000002000025404000254001000A004800254007000080B9
:401580000003254004032540100325404400254000022540040225405000254001240000880E2540C80E2540480F2540080F2540C80F2540880F25408001002048030020D8
:4015C000300300204503002005490B68F0229343603A13430B60034B1A88034B1A6070470003024080010020880F254010B5FFF731FF002802D0FFF713FF00E00020054B9E
:401600001A68D8239B001A4203D01A00014B1A60002010BDC00F254070B50500002402E0FFF756FF0134285D0028F9D170BDC046014B1878C0B2704760000F40034A11787E
:4016400080235B420B43DBB21370704774000F40014B18707047C04687000F40014B1878C0B2704767000F4010B50100014800F0F1FD10BD22000F4010B5024800F0F4FD15
:4016800010BDC04642000F4010B50100014800F0E1FD10BD02000F4010B501E0FFF7ECFFFFF7DCFF0307F9D410BDC04610B50B4C2000FFF7D9FF2000FFF7E6FF00F099FE3D
:4016C000074A117810230B43DBB2137000F095FEFFF7E2FF0120FFF7BBFF10BD3F420F0097000F4010B5064B1B78002B04D1FFF7DDFF0122024B1A70FFF7A0FF10BDC04634
:4017000082010020014BD8647047C0460000002010B5040000F06DFE044A13689B009B08A4071C43146000F068FE10BD00E400E00822014B1A60704700E100E00822014B33
:401740001A60704780E100E010B50400FFF7F6FF2000FFF7D7FF0320FFF7DAFFFFF7E8FF10BDC04604490A68D2B204239A43800018401043086070470000044004490A6821
:40178000D2B202239A434000184010430860704700000440044A1368DBB201218B430840184310607047C0460000044004490A68D2B208239A43C000184010430860704726
:4017C00000000440114B1B68022B1AD80F494A68581C086050008218D3189B000C4A9B580C4A1268D3400C4A12681340D8B20B4A1070180AC0B210701B0C8B60DBB213706D
:4018000002E01122064B1A707047C046840100204C0300205C0300205803002045000F4075000F402122164B1A70164A536801335360002B1FD1DBB2134A1370114A5368C7
:401840005900CB189B0011495B5811490968CB40104909680B40D8B20F490870180AC0B208701B0CD360DBB20B70012313600922034B1A7002E00122084B1A607047C046A8
:4018800075000F408401002070000F404C0300205C0300205803002045000F4060030020002804D00023114A5360114A13700F4843685A00D3189A000E4BD3580E4A12683E
:4018C000D3400E4A12681340D9B20D4A1170190AC9B211701B0CDBB21370012303601922084B1A700022084B1A6070478401002070000F404C0300205C03002058030020E5
:4019000045000F4075000F4060030020044B1868002803D00022034B1A7001207047C0466003002075000F4010B500210BE04B005B189B189B00054C1851013200E0002217
:40194000022AF4D901310029F9D010BD4C03002000280BDB002909DB022807DC002905DC4B00591808188000014BC2507047C0464C03002002280FD002D8012805D020E015
:40198000032810D0042815D01BE0114A114B1A600122114B1A601AE0104A0E4B1A6002220D4B1A6013E00E4A0A4B1A6003220A4B1A600CE00B4A074B1A600422064B1A60BD
:4019C00005E0094A034B1A600022034B1A6070477F7F7F00580300205C0300203F3F3F001F1F1F000F0F0F00FFFFFF0010B50322144B1A703832144B1A700B3A134B1A7038
:401A0000143A134B1A70134C012323700020FFF78BFF00232370002000F026F80020FFF7A9FF0D4B1B7D002B08D101220A4B1A750A4800F0F5F80A4800F024F90122094B18
:401A40001A6010BD96000F4046000F4026000F4036000F4075000F408401002025180000C51700006003002000280CD10C4A0D4B1A6005220C4B1A6002320C4B1A60193231
:401A80000B4B1A600BE0064A064B1A600522064B1A600232054B1A601932054B1A607047743C00006C0300206403002070030020680300200004000C014B18607047C0461F
:401AC0000C02204004490A68D2B208239A43C00018401043086070470005044004490A68D2B202239A434000184010430860704700050440034A117880235B420B43DBB2D1
:401B00001370704773000F40014B18707047C04681000F40014B1878C0B2704761000F40014B18807047C04600100F40014B188880B2704780100F40014B18807047C0463E
:401B400040100F40014B18807047C04660100F4010B501E0FFF7EAFFFFF7DCFF4306F9D410BDC04610B5134B1A7807218A431A701A7804398A431A70FFF7EAFF8024240224
:401B80002000FFF7D9FF2000FFF7CAFF0020FFF7BBFFFFF7BFFF2000FFF7D4FF00F029FC054A117810230B43DBB2137000F025FC10BDC04673000F4091000F4010B5064BD1
:401BC0001B78002B04D1FFF7CDFF0122024B1A70FFF790FF10BDC04699010020014B18647047C0460000002010B5040000F001FC044A1368C0218B43A4011C43146000F049
:401C0000FCFB10BD00E400E00122014B1A60704700E100E00122014B1A60704780E100E010B50400FFF7F6FF2000FFF7D7FF0320FFF7DAFFFFF7E8FF10BDC046014B586490
:401C40007047C0460000002010B5040000F0D1FB044A1168044B0B40A4031C43146000F0CCFB10BD00E400E0FF3FFFFF0222014B1A60704700E100E00222014B1A607047A0
:401C800080E100E010B50400FFF7F6FF2000FFF7D5FF0320FFF7D8FFFFF7E8FF10BDC046074B1B78272B05D8064B1B78DBB2064A136004E0054B1B78DBB2034A1360704792
:401CC00002F3FF0F42F3FF0F20FF0B40C1F1FF0F00230AE0204A12683F210A401F49C95C8A4201D1033303E001332D2BF2D903231B4A12781B2A16D8302B05D1194B1B78CE
:401D0000DBB2194A136006E0182B04D1174B1B78DBB2154A136016490B681F229343173A13430B6016E0302B05D1124B1B78DBB20D4A136006E0182B04D10F4B1B78DBB20D
:401D4000094A13600A4A13681F218B430B4909780B4313607047C0462CFF0B40543E000002F3FF0F3FF3FF0F28FF0B403EF3FF0F34FF0B40C3F1FF0FC2F1FF0FC0F1FF0FB1
:401D800000230AE00D4A12683F210A400C49C95C8A4201D1033303E001332D2BF2D9032308490868084A02400A60084A944663441B78DBB2064A13607047C0462CFF0B4045
:401DC000543E000000002240FFFFFFBF4DF3FF0F28FF0B40034B18688023DB05184000D0012070470000224010B50B4A136801218B431360094B1A68094B1A60094A126857
:401E00005A60FFF765FFFFF74BFF074A116802230B43136010BDC04650000C4034FF0B409C01002020FF0B4024002C4030B500230AE0134A12683F210A401249C95C8A423B
:401E400001D1033303E001332D2BF2D903230E490A68022082430A600C4C21681F2291430B4805682A400A4322604168094A1160094A944663441B78DBB2084A136030BDDE
:401E80002CFF0B40543E000024002C4034FF0B409C01002020FF0B404DF3FF0F28FF0B40034B1B680220184000D001207047C04624002C401F2318401E3B8340014A136028
:401EC0007047C04600E100E01F2318401E3B8340014A13607047C04680E100E001BE704770B504000D001F2802D90020FFF7F6FF1034A40080239B059C4664442068256057
:401F000070BDC04670B504000E00032902D90020FFF7E4FF1F2C02D90020FFF7DFFF03252540ED00063500F064FAA408A400074B9C46644421680323AB4099430B0031003C
:401F4000A9401943216000F058FA70BD00E400E010B5040006E0084B586800F041FA074B9C46644480231B029C42F4D8024B9868604300F035FA10BDCC0000200080FFFFEF
:401F800070B582B000F084F9002862D000F031FA0500314A116801230B43136000230AE02E4A12683F210A402D49C95C8A4201D1033303E001332D2BF2D903230021294AFE
:401FC0001160294A1268D20606D1274802681F318A4313390A430260244C2168244A1140244A5A438023DB019C466244D20B013A5205520D0B001343A022520313432360FA
:402000001D4B1B680193302000F036FA1B4A13688021C9050B4313602668194B1E40002407E00120FFF794FF1034A30533430F4A1360EE2CF5D90120FFF78AFFFF239B0524
:402040001E430A4B1E60019A0B4B1A60280000F0D4F902B070BDC04650000C402CFF0B40543E000028FF0B4034FF0B400800224000F800C040420F003000104000002240CE
:40208000FFFF3FC010B5034B1B7B584300F0A8F910BDC046CC000020F0B55F4656464D464446F0B483B0040000F0A3F90190FFF791FE002804D0FFF763FE01239A4601E0D7
:4020C00000239A46FFF7ECFE002808D0182C01D0302C07D1FFF7AAFE01239B4604E000239B4601E000239B46E61E2D2E74D8464B1B78DBB29C4208D8444B1B78DBB299469C
:40210000434B1B78DBB2984631E0424B1B78DBB29C4208D8404B1B78DBB299463F4B1B78DBB2984623E03E4B1B78DBB29C4208D83C4B1B78DBB299463B4B1B78DBB2984611
:4021400015E03A4B1B78DBB29C4208D8384B1B78DBB29946374B1B78DBB2984607E0364B1B78DBB29946354B1B78DBB29846344B9F5D2F2F09D92A2C07D91922314B1A60FE
:40218000052000F02DF9192503E02E4B1D683F231D40BD4206D92A4B9A5D2A4B1A60052000F01EF9254B9C4664442378DBB2264A1360264B4A461A60254B42461A6005208A
:4021C000FFF760FFBD420AD21D4B9A5D1D4B1A60052000F005F902E00020FFF77FFE5346012B01D1FFF7CCFE5B46012B01D1FFF7FBFD019800F001F903B03CBC904699461F
:40220000A246AB46F0BDC04640F3FF0F41F3FF0F42F3FF0F43F3FF0F44F3FF0F45F3FF0F46F3FF0F47F3FF0F48F3FF0F49F3FF0F4AF3FF0F4BF3FF0F4CF3FF0F4DF3FF0F29
:40224000543E00002CFF0B4028FF0B401CFF0B4020FF0B40CBB203700B0ADBB24370090CC9B281707047C0460378427812021A4383781B041A4310007047C046034B1868D9
:40228000C0231B02184000D00120704700010B40034B1B68002B01DA012000E0002070470000224010B500F0A4F8044A1368C02109020B43136000F0A0F810BD00010B4059
:4022C00010B500F096F808490A68084B1A408024E40122430A600A6813408022120213430B6000F08AF810BD00010B40FF3FFFFF70B5050000F07DF80400FFF7BFFF002861
:4023000003D0FFF7DDFF012100E0002108482840084A1568084B2B40184310601368012901D1FFF7BFFF200000F067F870BDC0460404040010020B40FBFBFBFF10B5244B6B
:402340001B685B0715D5234B5B685B070ED5224B596A042001401F4C62688A4362605A6A82435A629B69002B00D098470420FFF7BFFF174B1B685B0518D5164B5B685B050E
:4023800010D5154B596A8022D2001140114842688A434260596A114A0A405A62DB69002B00D098478020C000FFF7A2FF084B1B685B030CD5074B5B685B0304D5064B1B6A6E
:4023C000002B00D098478020C002FFF791FF10BD10020B40E0000020BC010020FFFBFFFF0230800803D00138FDD1C046C046C0467047EFF3108072B6704780F310887047AC
:4024000010B5144B1B68002B00D09847124B1B685B071DD5114B1B680133112B00D100230F4A1268934205D10E4B1B6820220E4B1A7006E00B4A1268D2B20C49CA54074A28
:4024400013600B4B1B68DB06E4D10422094B1A6010BDC0467C010020CC0F2540480300203003002040032540450300203403002008032540C00F254070B50400FFF7B9FF36
:402480000500102C05D8104A136803218B43136016E0202C07D80C490B6803229343023A13430B600CE0302C07D807490B6803229343013A13430B6002E00020FFF70EFDFF
:4024C0002800FFF79AFF70BD30001040002243088B4274D303098B425FD3030A8B4244D3030B8B4228D3030C8B420DD3FF22090212BA030C8B4202D31212090265D0030B4E
:402500008B4219D300E0090AC30B8B4201D3CB03C01A5241830B8B4201D38B03C01A5241430B8B4201D34B03C01A5241030B8B4201D30B03C01A5241C30A8B4201D3CB020C
:40254000C01A5241830A8B4201D38B02C01A5241430A8B4201D34B02C01A5241030A8B4201D30B02C01A5241CDD2C3098B4201D3CB01C01A524183098B4201D38B01C01A1E
:40258000524143098B4201D34B01C01A524103098B4201D30B01C01A5241C3088B4201D3CB00C01A524183088B4201D38B00C01A524143088B4201D34B00C01A5241411AF5
:4025C00000D20146524110467047FFE701B5002000F006F802BDC0460029F7D076E770477047C04610B50A22002100F0F3F810BD014B18687047C046480100200E4B70B5C8
:4026000000251E000D4CE41AA410A54204D0AB00F35898470135F8E701F0CEFC084B00251E00084CE41AA410A54204D0AB00F35898470135F8E770BDC43F0000C43F000078
:40264000C43F0000CC3F0000002310B59A4203D0CC5CC4540133F9E710BD03008218934202D019700133FAE7704700000EB410B59DB002A9029008610B48822488604861F7
:40268000012040421FABC881084804CBA400006801938C8100F00CF90023029A13701DB010BC08BC03B01847FFFFFF7F48010020F0B51E00454B87B01B68019202930822AE
:4026C0000B00059003911C7802995D1C09194878104001D02B00F6E72D2C04D19D1C5C780123009304E000902B2C01D15C789D1C002E02D0102E0AD162E0302C5ED120222F
:402700002B789343582B54D110266C780235009F31007B1E9F412E4BFF183800FFF75CFF380004913100FFF7D1FE00230322070094461800029A121951780422114201D0E7
:40274000303C07E06246114017D03722012900D02032A41AA64210DD5A1C0BD0B84207D802D1049B9C4203DC70430123201801E001235B422C780135DCE75A1C0BD100985D
:40278000059A431E9841124BC01822231360019B002B0AD117E0009A002A00D04042019A002A10D0039A002B00D06A1E019B1A6009E03024002EAAD10826A8E70A26A6E769
:4027C000302C9CD0A3E707B0F0BDC0464C010020FFFFFF7F10B513000A00010002480068FFF766FF10BDC04648010020F0B58E6885B007000C00039201939E4243D890234E
:402800008A89DB001A423ED003250969236801985B1A029363695D43EB0F5D19029B6D1001331B18AB4200D91D00530510D52900380000F037FB061E14D0029A2169FFF754
:4028400003FFA289194B134080221343A38112E02A00380000F086FB061E0CD12169380000F0D4FA0C23402201203B60A38940421343A38117E0029B2661F6182660656128
:40288000019EED1AA560019BB34200D21E0032000399206800F0A5FA0020A3689B1BA36023689E19266005B0F0BDC0467FFBFFFFF0B59FB0029005938B890F0016001B0603
:4028C00010D50B69002B0DD1402100F0EBFA38603861002804D10C23029A01381360D8E040237B61002306AD6B6120336B761033AB7634002378002B03D1A31B049312D065
:4029000003E0252BF9D00134F4E7A31B320039000298FFF76BFF431C00D1B4E06A69049B944663446B612378002B00D1ABE00122002352426A6002A95432521801342B60C4
:40294000EB60AB601370AB65534E21780522300000F03CFA002807D00123801B83402A68013413432B60EFE72B68DA0604D55322202102A8121811701A0704D553222B21A6
:4029800002A81218117022782A2A03D0099B00200A210EE0059A111D12680591002A01DB099204E05242EA60022213432B6001340BE02278303A092A04D84B4301349B1836
:4029C0000120F6E7002800D0099323782E2B1ED163782A2B0AD1059B02341A1D1B680592002B01DA01235B42079310E000230A201A0001346B6021783039092904D84243E3
:402A0000013452180123F6E7002B00D00792234E21780322300000F0D9F9002806D04023801B83402A68013413432B60217806221B48661C297600F0C9F9002812D0194B75
:402A4000002B06D10722059B073393430833059314E005AB00933A00134B2900029800E000BF07E005AB00933A000F4B2900029800F08AF80390039B013304D06B69039ADA
:402A80009B186B6135E7BB890B985B0601D5012040421FB0F0BDC046853F00008B3F00008F3F000000000000ED270000F7B5170001938A680B6900900C00934200DA1300AD
:402AC00022003B6043321278002A01D001333B6023689B0602D53B6802333B60062523681D401ED0230043331B785A1E9341226892061CD53020E1184331087021005A1C82
:402B000045310978A2184332023311700FE022000123193201990098089EB047431C0ED00135E3683A689B1A9D42F0DBDAE72200019943320098089DA847431C02D101203A
:402B4000404220E006232068E1683A6803400025042B03D18D1AEB43DB171D40A3682269934201DD9B1AED180027BD420AD0220001231A3201990098089EB047431CDED037
:402B80000137F2E70020FEBDF0B58BB006920A0043320793059004920A7E0C00109B6E2A00D1ABE011D8632A22D009D8002A00D1B5E0582A00D0C5E045310A70814A4FE080
:402BC000642A1DD0692A1BD0BCE0732A00D1AAE009D86F2A29D0702A00D0B3E0202209680A43226037E0752A1FD0782A33D0A9E00E001A684236111D196013683370A4E032
:402C000021681A68080606D4490604D5111D19600023D55E02E0111D19601568002D3BDA2D23049A6D42137036E021681A68080606D4490604D51568111D1960ADB202E07E
:402C4000111D196015685F4B227E039308276F2A1DD00A271BE022007821453211705A4A19680392081D226818600D68100602D4500600D5ADB2D30702D520231A4322601D
:402C80001027002D03D1202322689A4322602300002243331A7002E00A274A4B03936368A360002B09DB0422216891432160002D05D1049E002B11D07BE0002D79D0049E28
:402CC00028003900FFF788FC039B013E5B5C280033703900FFF7FAFB051EF1D1082F09D12368DB0706D563682269934202DC3023013E3370049B9B1B23612BE009681A6823
:402D0000080607D4490605D5111D19601368A28A1A8004E0111D1960136862691A600023049E236116E01A68111D1960166800216268300000F04AF8002801D0801B6060C7
:402D4000636803E0260042363270012323610023049A1370079B09AA00932100069B0598FFF7A4FE431C02D10120404227E02369320006990598079DA847431CF4D0236883
:402D800000259B070FD4099BE068984217DA180015E022000123193206990598079EB047431CE1D00135E368099A9B1A9D42F0DBE9E72600039B42361B7833708EE70BB037
:402DC000F0BDC046963F0000A73F0000C9B28218904204D003788B4202D00130F8E70020704710B5884202D98B18984201D3002305E09B1A013A08D3995C8154FAE793429B
:402E000003D0CC5CC4540133F9E710BD70B50500002944D00C1F2368002B00DAE418280000F0D8F81E4A13681100002B02D16360146031E0A3420DD92268A018834203D1B8
:402E400018685B688218226063600C6024E0A24203D813005A68002AF9D11E689819A0420BD12168711858181960824214D110685268411819605A600EE0A04202D90C2307
:402E80002B6009E021686018824203D1106852684118216062605C60280000F09CF870BDE8010020032370B5CD1C9D43083506000C2D01D20C2501E0002D01DBA94202D955
:402EC0000C23336048E0300000F084F8234B1C681A002100002913D00B685B1B0DD40B2B02D90B60CC181EE08C4202D1636813601AE04B6863600C0016E00C004968E9E70D
:402F0000174C2368002B03D1300000F051F820602900300000F04CF8431C18D00323C41C9C43A0420DD12560300000F054F8200007220B30231D9043C31A0ED05A42E25031
:402F40000BE0211A300000F033F8431CEBD10C233000336000F03FF8002070BDE8010020E4010020F8B506000C001500002904D11100FFF797FF040018E0002A03D1FFF7F2
:402F800045FF2C0012E000F027F885420ED929003000FFF787FF071E07D021002A00FFF753FB21003000FFF731FF3C002000F8BD002370B5064C050008002360FDF726FEC8
:402FC000431C03D12368002B00D02B6070BDC04674030020704770470B1F1A68101F002A04DA891804390B68D018043870470000000000000D0A2D2D2D2D2D2D2D2D2D2D6D
:403000002D2D2D2D2D2D2D2D2D2D2D2D2D2D2D52657365742D2D2D2D2D2D2D2D2D2D2D2D2D2D2D2D2D2D2D2D2D2D2D2D2D0000000D0A0D0A416464723A202578200D0A00AE
:403040000D0A57656C636F6D6520746F204D6F746F722043414E2054657374657220707265737320656E74657220746F20636F6E74696E7565200D0A000000000D0A2D2DF5
:403080002D2D2D2D2D2D2D2D2D2D2D2D2D2D2D2D2D2D2D2D2D2D2D5741524E494E472D2D2D2D2D2D2D2D2D2D2D2D2D2D2D2D2D2D2D2D2D2D2D2D2D000D0A4D616B65205382
:4030C00075726520746865206D6F746F72732043414E204D4F564520465245454C592E200D0A426520707265706172656420746F20646973636F6E6E65637420706F776588
:40310000722066726F6D207468652073797374656D20617420616E7920706F696E740D0A000000000D0A2D2D2D2D2D2D2D2D2D2D2D2D2D2D2D2D2D2D2D2D2D2D2D2D2D5396
:40314000455249414C2056414C55452D2D2D2D2D2D2D2D2D2D2D2D2D2D2D2D2D2D2D2D2D2D2D2D2D000000000D0A53657269616C206172652076616C75657320626574778F
:4031800065656E20312D36332E20302069732062726F61646361737420616E642069732064697361626C656420666F7220736166746579200D0A56616C75653A200000005B
:4031C00053657269616C2056616C75653A2025640D0A00000D0A2D2D2D2D2D2D2D2D2D2D2D2D2D2D2D2D2D2D2D2D2D2D2D2D2D50574D2056414C55452D2D2D2D2D2D2D2DE3
:403200002D2D2D2D2D2D2D2D2D2D2D2D2D2D2D2D2D0000000D0A53657420612050574D2076616C7565206265747765656E2020E2889233322C37363820616E642033322CFC
:403240003736370D0A56616C75653A200000000050574D2056616C75653A2025640D0A000D0A2D2D2D4E4F5420494D504C454D454E544544205945542D2D2D0D0A0000009E
:403280000D0A2D2D2D2D2D2D2D2D2D2D2D2D2D2D2D2D2D2D2D2D2D2D2D2D2D4D4F44452053454C2D2D2D2D2D2D2D2D2D2D2D2D2D2D2D2D2D2D2D2D2D2D2D2D2D0000000004
:4032C0000D0A53656C6563742061206D6F646528747970652061206E756D626572293A200D0A20303A2050574D200D0A20313A20504944200D0A4D6F64653A2000000000F0
:403300000D0A50574D204D6F64652053656C65637465640D0A0000000D0A504944204D6F64652053656C65637465640D0A0000000D0A43414E2053454E44204D6F6465208C
:4033400053656C65637465640D0A00000D0A43414E2052454144204D6F64652053656C65637465640D0A00000D0A4552524F522053454E44494E47204241434B20544F2006
:403380004D4F44452053454C4543540D0A00000000300F40000800400F400008061816182614360C816F820F8403870D08010C022101250230023101350236013E013F11AE
:4033C0004023410149FF4AFF4BFF4DA04F015018580459045A045B045C025D015F016040628064406540668068406A806C406D206E808108830484038B0390089102990CB7
:403400009C039E0CA30CA401B004B101B201B308B408B504B602B702B888BE14BF54C023C101C53CC620C74EC83BC9FFCAFFCBFFCDAFCE07CF01D018D40FD804D904DA048E
:40344000DB04DC11DD11DF05E040E280E440E540E680E840EA80EC40ED20EE80030A06200D020F02150819801A401C101D0A1E081F40221124082602272228602F4036020A
:4034800037103E213F104018420143404408450847404F06562A5A625B045E885F126608670468A97E048702C023C290C420CA83CCA0CEA0D07ED6FFD860DE20E208000119
:4034C0000303060808020A2014A01504165F185719011A081C041E902257320F33023430350436C037013AA03F50405249FF4AFF4BFF4F015018540F580459045A045B04A8
:403500005C195D135F016040624064406540668068806A806C806E8081C58203833A8401857F89FE8A808B018C148E209014922094049640987099A39B5C9D969E709F6866
:40354000A040A204A301A474AA08AD0EAE01AFF0B00CB201B3FFB402B6F0BE04BF04C041C9FFCAFFCBFFCD83CE03CF01D018D280D804D904DA04DB04DC01DD13DF01E04082
:40358000E240E440E540E680E880EA80EC80EE80000401220302051508010A290B040E2A12A013501640180419021A011B081D1C1E02231026402714280829022B0A329066
:4035C00034043710392A3E024140424046044C015C825F2473408410860488028A2095089609988099809A029B209C689F14A0A9A640A884B308C07FC2EFC41FCA09CC6C3A
:40360000CE87D029D210D6F0E82001CA032509BF0B400C940E6014CF15771630187319CC1B131D051E0F1FFA203022C924FD26022C9E2D832E602F1C31F034FF350F3E1000
:40364000404145EC46024702481749FF4AFF4BFF4D834E034F01501852805604580459045A045B045C105D335F016040624064406540668068806A806C806E808249846D1D
:4036800086128A498E8994A49653980C9E49A20CA402A501A610B0C0B238B301B407B808BA02C032C50CC6E0C70BC819C9FFCAFFCBFFD804D904DA04DB04DC29DD09DF012F
:4036C000E2C0E440E50103020444051006400A290E220F08100112A21440170519201C441D011E281F202111222227102B022F103294392241404240452849064F085140AA
:403700005204571859805B105D405F1060806330644065086D016F0170017240760177048C808D408F049201940295AA966C99909C019D219E44A0A9A108A201A410A6B41E
:40374000A702AC44B420C0F1C2E7C43DCA48CC0ECE05D069D63CD8C1E210EA08EE080140050106020E031301171019081A011BE61D042180220125C3273829402A042B80BE
:403780002E0230043107320133203402351837C839023E144015451046024750482649FF4AFF4BFF4DA0580459045A045C915D095F016040614062C064C066C08002816C33
:4037C00083018537895B8A018B0492019780996C9B029D089E029F01A002A402A802AF0FB001B370B402B50FB780B908BE11D401D604D804D904DB04DC10DD30DF01000273
:4038000002040508071109400A400F0810A815011601172019201A801C201E041F0221042294256027582B022E022F28329836103749392A3F0A47404F8256425740590690
:403840005A80604081208C408E08912392409508962C99069A059B219D089E40A0A9A210A32CA410A520A680A702AF30C0AAC249C4DECAE8CCFECEC7D010D210D60BD801D4
:40388000E240E40168206B406F027602DAC0DC60842087029D209E029F40A420A702B120E250030805200F048F409D209E029F40C0C0C2808E029E02AF0CE840EC408580E2
:4038C000018004400B800E209D80C003C20CAE10AF40B440EA020F805E0282018F40C204D601E602100E1101120E130108000F4058300F4031310F4069320F403D330F405D
:403900005E340F404C350F4050360F4043370F4006400F4009410F4009420F4005430F4001440F4007450F4004460F4007470F4004600F4000000000080088000000000031
:403940000100000008008800000000000200000008008800000000000300000008008800000000000400000008008800000000000500000008008800000000000600000062
:40398000080088000000000007000000080088000000000000000000A8008000FFFFFFFF0000000001000000A8008000FFFFFFFF0000000002000000A8008000FFFFFFFF71
:4039C0000000000003000000A8008000FFFFFFFF00000000040000000000000000000000000000000500000000000000000000000000000006000000000000000000000091
:403A0000000000000700000000000000000000000000000008000000000000000000000000000000090000000000000000000000000000000A000000000000000000000064
:403A4000000000000B0000000000000000000000000000000C0000000000000000000000000000000D0000000000000000000000000000000E000000000000000000000014
:403A8000000000000F000000000000000000000000000000FFFF0000FFCC0000FF990000FF330000FF000000B3006600990099006600B3003300CC001919B3000033990051
:403AC00000409900006699000099990000CC990000E6660000FF000033FF000066FF000080FF000099FF0000B2FF0000CCFF0000E5FF000000000000000055000000AA00FF
:403B00000000FF0055000000550055005500AA005500FF00AA000000AA005500AA00AA00AA00FF00FF000000FF005500FF00AA00FF00FF0000550000005555000055AA0096
:403B40000055FF0055550000555555005555AA005555FF00AA550000AA555500AA55AA00AA55FF00FF550000FF555500FF55AA00FF55FF0000AA000000AA550000AAAA0006
:403B800000AAFF0055AA000055AA550055AAAA0055AAFF00AAAA0000AAAA5500AAAAAA00AAAAFF00FFAA0000FFAA5500FFAAAA00FFAAFF0000FF000000FF550000FFAA0076
:403BC00000FFFF0055FF000055FF550055FFAA0055FFFF00AAFF0000AAFF5500AAFFAA00AAFFFF00FFFF0000FFFF5500FFFFAA00FFFFFF00FF800000FF008000FF00FF00E5
:403C00008000FF000080FF0000FF8000FF0000002020200000002000000000100000000000000000000000000000000000000000000000000000FF000010F0000020E00079
:403C40000030D0000040C0000050B0000060A00000709000008080000090700000A0600000B0500000C0400000D0300000E0200000FF0000000000000000005F00000007DF
:403C8000000700147F147F14242A7F2A12231308646236495522500005030000001C2241000041221C00082A1C2A0808083E08080050300000080808080800606000002004
:403CC000100804023E5149453E00427F400042615149462141454B311814127F1027454545393C4A49493001710905033649494936064949291E00363600000056360000BF
:403D00000008142241141414141441221408000201510906324979413E7E1111117E7F494949363E414141227F4141221C7F494949417F090901013E414151327F08080822
:403D40007F00417F41002040413F017F081422417F404040407F0204027F7F0408107F3E4141413E7F090909063E4151215E7F09192946464949493101017F01013F404073
:403D8000403F1F2040201F7F2018207F63140814630304780403615149454300007F4141020408102041417F000004020102044040404040000102040020545454787F4882
:403DC0004444383844444420384444487F3854545418087E090102081454543C7F0804047800447D40002040443D00007F10284400417F40007C041804787C080404783846
:403E0000444444387C14141408081414187C7C080404084854545420043F4440203C4040207C1C2040201C3C4030403C44281028440C5050503C4464544C440008364100B8
:403E400000007F0000004136080008082A1C08081C2A0808030405060708090A0B0C0E0F101112131415161718191B1C1D1E1F2021222325262728292A2B2E2F3031323301
:403E8000343543000020202020202020202028282828282020202020202020202020202020202020208810101010101010101010101010101004040404040404040404107E
:403EC00010101010101041414141414101010101010101010101010101010101010101011010101010104242424242420202020202020202020202020202020202020202B4
:403F00001010101020000000000000000000000000000000000000000000000000000000000000000000000000000000000000000000000000000000000000000000000021
:403F40000000000000000000000000000000000000000000000000000000000000000000000000000000000000000000000000000000000000000000000000000000000041
:403F80000000000000232D302B2000686C4C006566674546470030313233343536373839414243444546003031323334353637383961626364656600F8B5C046F8BC08BCE3
:403FC0009E46704721030000850C0000F8B5C046F8BC08BC9E467047F9020000F03F0000C000002090000000280200000000000000000000FF00000078030020010000004C
:404000000000C05D80BB000030000000006CDC02F0000000040404000000000000000000000000000000000000000000000000000000000000000000823E000000000000F2
:404040000000000000000000000000000000000000000000000000000000000000000000000000000000000000000000000000000000000000000000E8000020843E000076
:404080000000000000000000000000000000000000000000000000000000000000000000000000000000000000000000000000000000000000000000000000000000000000
:4040C00000000000000000000000000000000000000000000000000000000000000000000000000000000000000000000000000000000000000000000000000000000000C0
:40410000000000000000000000000000000000000000000000000000000000000000000000000000000000000000000000000000000000000000000000000000000000007F
:40414000000000000000000000000000000000000000000000000000000000000000000000000000000000000000000000000000000000000000000000000000000000003F
:020000040003F7
:0200000490303A
:02000000AFCA85
:0200000490402A
:4000000000000000000000000000000000000000000000000000000000000000000000000000000000000000000000000000000000000000000000000000000000000000C0
:400040000000000000000000000000000000000000000000000000000000000000000000000000000000000000000000000000000000000000000000000000000000000080
:0200000490501A
:0C0000000002101111A000011024C16AC0
:0200000490600A
:0100000001FE
:00000001FF