:400000000080002011000000BD150000BD15000010B501F0F3FAC04610B51222284B1A60302002F0FFFC274A274B1A600024274B1C60274B274A1A602749284A1160284A0E
:400040001A6080214900274A1160274A1A60C022920026490A602649196026490A60264A1A60E0210901254A1160254A1A60E0214901244A1160244A1A6082221206234B47
:400080001A60234A234B1A60C022234B1A607F3A224B1A600132224B1A600132214B1A600132214B1A600132204B1A602049082002F0DCFB082002F0C3FB1E4B1C6010BDBF
:4000C000300010400600008004010B40000301400000014040FF0080007F1A0600050140C0FF00800403014041FF00800803014042FF00800C03014043FF008010030140C7
:4001000044FF00801403014045FF008008010B404902040000010B405801014050010140400101403C010140280101400C010140C92C00000C020B4010B572B60122454B1F
:400140001A7000240FE044486200131959000B00411889881A5AC31858880004104301F0F9F90134E4B2012CEDD93B490C313B48783001F0D5F9A0221201394B1A80012212
:40018000384B1A70E0229205374B1A60374A384B1A60AA22374B1A60374A384B1A6099231B04374A1360374A1360374A13608021C905364A1160364A1360364A13603F227B
:4001C000354B1A60183A354B1A6035490B781532934314221343DBB20B70324A117816230B43DBB21370BC222F4B1A602F4A304B1A6008222F4B1A6004322F4B1A6013329E
:400200002E4B1A602E4A2F4B1A6013222E4B1A6002232E4A13602E492E4A11602E4A13603E222E4B1A602E4A2E4B1A6005222E4B1A602E4A2E4B1A60802252012D4B1A60B2
:40024000C02292002C4B1A60FFF7E6FE01F098F910BDC0461C700F4030510000B053000000600F4002600F400000024099EE00000003024000040240080800000005024080
:4002800000500F4020500F4040500F4048500F4050500F4070500F402000104000800F4001700F4000700F4000000440B62DC50008000440080C04400C0C0440000204402C
:4002C00092040000080204401802044000030440B10D0000080304401803044000040440B12401000804044000050440B60D000008050440080604400C06044010B5064C7F
:400300002378002B07D1054B002B02D0044800E000BF0123237010BD5801002000000000FC500000084B10B5002B03D00749084800E000BF07480368002B00D110BD064B75
:40034000002BFBD09847F9E7000000005C010020FC500000C00000200000000010B501F051FE1E4A1378013313701D4B1A7801321A705A7801325A709A7801329A70DA7849
:400380000132D2B2DA70012A04D90022DA70154800F062FB114B1B78132B09D900220021002000F0A7F900220021002000F0CEF90B4B9B78022B08D9012001F0CDFE01208D
:4003C00001F0A6FE012001F0AFFE054B1B78022B02D9012001F0B4FE10BDC046A001002074010020BC02002070B500F0DBF90500164C267901F010FA02003100280000F0BE
:40040000A5F901F009FA03230340114D01220221280001F001F8280000F060FE6379002B07D001F035F9431C03D0084BDA689A600AE0064B1B7C002B06D001F031F9431C8A
:4004400002D0024B5A699A6070BDC04674010020BC02002010B582B0040000F063FF0190019B002B07D1002001F06AFE0022034B1A70E07800E0024802B010BD7401002074
:40048000FFFF000010B50400012001F065FE012001F03EFE012001F047FE00220C4B9A70002001F059FE022C07D0032C09D0012C0DD1002001F02CFE09E0002001F034FEF1
:4004C00005E0002001F024FE002001F02DFE10BD7401002010B501F065FD002801D0002400E0012401F066FD002800D1023401F069FD002800D1043401F06CFD002800D1AE
:400500000834200010BDC04670B562B6042000F0D7F801F087F9FFF7DDFF204C207601F0A5FC227E1E4D1F49280004F0C3F9280001F02CFD237EDB08012501263340DB43A6
:40054000D8B201F009FE207E80086840304001F0EBFD207E40086840304001F0D9FD207E6840304001F0ECFD217E0A001032042000F026FD01F08AFD01F0FCF801F0CCFF52
:40058000094802F015FC094802F042FC084801F025F9084801F0AEFD70BDC046740100205802002020510000B1060000B9060000E90300005D03000070B5FFF7A5FF244B78
:4005C000186E01F08DFE00F0CDFC02282CD004D800280BD0012818D037E004282CD02FD3FF2832D1FC3800F0B1FCECE7194B1A229C5E1D7F01F010F902002900200000F0B0
:4006000079F8032000F0A2FCDDE7124B1E229C5E1D7901F001F902002900200000F096F8032000F093FCCEE70A4B186A00F0D8F9032000F08BFCC6E7032000F087FCC2E77E
:400640000549064800F01AFABDE700F075FCBAE7CC55000074010020BC020020CC02002010B501F0C9F840B20E4B18700E4B1B785BB2984211D001280FD101F0C5F8094BA9
:400680001B785BB2984204D0084A9368013B936003E0064A936801339360024B1A78024B1A7010BDC9020020C80200207401002010B5FFF7D5FF10BD10B5FFF7D1FF10BD7A
:4006C00010B5040001F062FE042C00D90424200001F020FE034B186D01F0EEFD012001F0B5FD10BDCC550000120403021A4310000843704710B504000020134B1870002C9A
:400700000CDAD30701D5002908D0002001F014FF0D4B5C60604200F0DBFF14E0002C0CDD930701D5002908D0012001F005FF064B5C60200000F0CCFF05E00022024B5A60F8
:40074000002000F0C5FF10BDA001002010B504000020134B1870002C0CDAD30701D5002908D0002001F0F4FE0D4B9C60604201F081FE14E0002C0CDD930701D5002908D0A2
:40078000012001F0E5FE064B9C60200001F072FE05E00022024B9A60002001F06BFE10BDA0010020014B0820185E7047A0010020024B00221A605A607047C046AC01002091
:4007C0000022014B1A727047AC0100200122014B1A727047AC010020014B187A7047C046AC01002010B5002200210020FFF7AEFFFFF7DEFFFFF7E4FF0022014B5A6010BD28
:40080000AC010020014BD8607047C046AC010020014B18617047C046AC010020014B58617047C046AC01002070B50024002509E002F0FCFA022002F003FB002002F014FB8D
:400840002D180134044B9C42F2DDFA218900280002F030FC70BDC046E7030000014B186059607047D8020020F8B50E4B9D69DC69A54214D01A001B6A506A181A03F044FFF0
:4008800006000F00601B03F03FFF02000B003000390003F065F8044B1860596001E000200021F8BDAC010020D80200202823014AD0547047AC010020014B18607047C046D4
:4008C000C4000020014B58627047C046AC010020014B18627047C046AC010020014B98617047C046AC010020014BD8617047C046AC010020F8B5194B1C685D6800220023B7
:400900002000290002F0D2FC002825D12823144AD35C002B17D0FFF787FF114C636AC01A03F0F2FE0D4B1A685B6803F03DFC06000F00A06903F0E8FE32003B0002F0E4FC44
:4009400003F0ACFE09E0002200232000290003F02BFC03F0A3FE00E00020F8BDD8020020AC010020F8B50500FFF736FF00282ED0FFF7C0FF2C1A631D0A2B2AD9164B1A68A0
:40098000A2181A60154B5B689A4201DD124A13605B42114A1268934201DD0F4A13600E4D6B68E71AE86860430A2102F083FB060028692B6858430A2102F07CFB3618686931
:4009C00078430A2102F076FB6C60301802E0002000E00020F8BDC046AC010020C400002070B5FFF7BFFF0400134BD862134B1D68A84209DD124B1C7800F00EFF020028B23A
:400A00002100FFF7A3FE16E06B4298420ADA0C4B1C7800F001FF02006D4228B22100FFF795FE08E0064B1D7800F0F6FE020020B22900FFF78BFE70BDAC010020C400002081
:400A4000780100200079704710B503300522022100F044FD10BDC04610B582B00400FFF749FF0090042301220221200000F092FC200000F033FB02B010BDC046F0B585B0F6
:400A800004000E00FFF7E6FC0700200000F012FD0500200000F014FD0290200000F00EFD0390FFF717FD854200D0A5E00C2F60D004D8002F07D0032F48D092E0F02F67D03B
:400AC000F52F7ED08DE0200000F07CFC00281BD100220021FFF70EFED64B186E01F0ECFBFF2200210020FFF7FFFD02000021002001F0FEFB012001F0A9FB002000F02CFA4A
:400B0000032000F023FA08E2200000F05BFC012819D1FFF767FEC74B186E01F0CDFBFF2200210020FFF7E0FD02000021012001F0DFFB012001F08AFB012000F00DFA03205F
:400B400000F004FAE9E100F0F7F9E6E100F010FA002807D100F0FAF9200000F035FCB64B1880DAE1042000F0F1F90120FFF78AFCD3E1200000F078FC002802D00022AF4BBB
:400B80001A600020FFF792FE032000F0DFF9C4E1002200210020FFF7ADFD00F0CDF9A54B186E01F089FBFF2200210020FFF79CFD02000021002001F09BFB012001F046FBD3
:400BC000ABE1200000F07CFC0500200000F076FC02002900300000F0CBFB300000F07EFA9BE1032000F0B2F9954B9F4200D194E10020FFF747FC90E1FFF76CFC1030854241
:400C000000D08AE10A2F00D1BBE010D8042F00D19DE004D8002F22D0032F63D064E1062F00D17EE072D3072F00D185E05CE1102F00D1CAE009D80D2F00D1F2E00F2F00D1E9
:400C4000B0E00C2F00D04FE1D2E0F02F00D118E1F52F00D12EE1122F00D045E1F8E0200000F0B0FB00281BD100220021FFF76EFD704B186E01F020FBFF2200210020FFF7E3
:400C800033FD02000021002001F032FB012001F0DDFA002000F060F9032000F057F93CE1200000F08FFB012819D1FFF79BFD614B186E01F001FBFF2200210020FFF714FD0E
:400CC00002000021012001F013FB012001F0BEFA012000F041F9032000F038F91DE100F02BF91AE100F044F9002808D1013000F02DF9200000F068FB524B18800DE104201C
:400D000000F024F90120FFF7BDFB06E1200000F06BFBFFF777FD00F031F9032000F016F9FBE0200000F068FBFFF772FD00F02EF9032000F00BF9F0E0200000F065FBFFF7BD
:400D40006DFD00F02BF9032000F000F9E5E000F00FF901280ED100F029F900280AD0FFF735FD200000F038FB374B1860022000F0EDF8D2E0042000F0E9F80120FFF782FB79
:400D8000CBE0200000F058FB03F000FD02000B0000202E4902F0E4FDFFF760FD032000F0D5F8BAE0200000F04FFBFFF78BFD200000F052FBFFF792FDFFF756FD0120FFF7D7
:400DC00075FD032000F0C2F8A7E0200000F03CFBFFF77EFD200000F03FFBFFF785FDFFF743FD0120FFF762FD032000F0AFF894E000F0BEF8012808D1002200210020FFF7D8
:400E0000A5FCFFF7D5FCFFF7DBFC200000F02CFB002802D00022094B1A60032000F096F87BE0200000F024FBFFF746FD032000F08DF872E0CC5500008E0100207C010020A1
:400E4000FFFF0000920100209401002000F915412000FFF7F7FD002808D10122304B1A702000FFF7F1FD2F4B186056E0012854D101222D4B1A702000FFF7E6FD2B4B186004
:400E80004BE0002200210020FFF760FC00F054F8274B186E01F010FAFF2200210020FFF723FC02000021002001F022FA012001F0CDF932E0200000F083FA0F2808D1FFF7DF
:400EC000B3FC00900F23039A0299300000F062FA039A0299300000F04BFA300000F0FEF8032000F033F818E000F042F8012803D1013000F02BF80AE000F03AF8002803D171
:400F0000033000F023F802E0032000F01FF8094B9F4202D00020FFF7B5FA05B0F0BDC04679010020800100208401002088010020CC550000FFFF000010B5FFF739FC024B4E
:400F4000FF221A705A7010BDCC000020014B58707047C046CC000020014B18707047C046CC000020014B58787047C046CC000020014B18787047C046CC000020024A1178EA
:400F800004230B4313707047DC010020024A117802230B4313707047DC010020024A117801230B4313707047DC010020034B18780F3843425841C0B27047C046DC01002019
:400FC000F8B54F464646C0B404000E00170000F071FE0F202040354D28603F2331001940334A11603B40334F3B60334C00262670800108434005E060304B9846A360304BB9
:401000001B686360200000F01FFD01232370E6604346A3602B4B1B686360200000F014FD022323702B68DB06FC22D20491461343E3604346A360244B1B686360200000F0F7
:4010400003FD032323702B689A013B6813435B05E3604346A3601D4B1B686360200000F0F3FC04232370E6604346A360184B1B686360200000F0E8FC052323702B68DB065C
:401080004A461343E3604346A360124B1B686360200000F0D9FC00F0D3FB0F491C2001F0E5FB0CBC90469946F8BDC046E0020020F4020020B8030020E4020020FFFF1F8002
:4010C000A0002E40C0002E40E0002E4000012E4020012E4040012E40D111000010B586B0002815D0038802AC02930023237163718278A271E3716B460593C11C0822684617
:4011000003F0C6FB200000F0EBFD002802D102E0022000E0012006B010BDC046014B18787047C046F4020020014B18787047C046E002002002207047104B1878C0B20028D2
:4011400019D15A78D2B29B78DBB29A4205D20B4A93785078181AC0B20EE0084B5A78D2B29B78DBB29A4207D9044A93785078181A1030C0B200E010207047C046DD0100204D
:40118000124A93780133DBB293709378DBB20F2B02D900220D4B9A700C4B1B78002B0BD00A4A53780133DBB253705378DBB20F2B02D90022054B5A70044A537891785B1A00
:4011C00059424B41DBB213707047C046DD01002070B580225201444B1A60444B1B68DA0706D49A0706D45A0706D41B0706D406E0002404E0012402E0022400E003243C4BB2
:401200009A78D2B264013B4B9C4664442368DB0202D46168490D02E06168C90889B2364B500082189000C152314A9178C9B22068000C0F2528404D0069188D005D19A87069
:401240009178C9B2A5682D0E4800411888001818C5709178C9B2A068000CC0B24D0069188D005D1928719178C9B2A068000AC0B24D0069188D005D1968719178C9B2A5685D
:40128000EDB2480041188800181885719178C9B2E5682D0E4800411888001818C5719178C9B2E068000CC0B24D0069188D005D1928729178C9B2E068000AC0B24D006918DA
:4012C0008D005D1968729278D2B2E068C0B251008A1891005B189872FFF752FF226801231343236070BDC04600002E4008002E40DD010020A0002E40F802002010B5FFF702
:401300001BFF00280BD0064A53780133DBB253705378DBB20F2B02D90022014B5A7010BDDD01002010B582B0041E17D0FFF704FF6B46D87107331B78002B11D00A4B5B788D
:40134000DBB25A00D3189900084B59180C22200003F09EFAFFF7D2FF002002E0022000E0022002B010BDC046DD010020F802002070B50400012000F083F820800423A3704C
:40138000E01CF92100F08AF80500FFF7D3FE6419E07070BD70B504001E00012000F070F820800823A370E51CF621280000F076F82418E670421C0499280000F083F870BD56
:4013C000807970470079704710B503300222012100F084F800B210BD10B503300522012100F07CF810BDC04610B503300522012100F074F810BDC04610B5033005220121BB
:4014000000F06CF810BDC04610B503300522012100F064F810BDC04670B504001D00002000F02EF820800423A370E01C092100F035F82418E57070BD10B50330042201218E
:4014400000F04CF810BDC04610B503300222012100F044F880B210BD10B503300622032100F03CF810BDC046037901201840704710B503300222012100F030F880B210BDC0
:4014800080028023DB0018408901403B194001433F200240114308007047C04610B504000170FFF741FE6070FFF738FEA070032010BDC04603783F201840704740797047AE
:4014C0000079704710B50B0E8354531C0C14C454931C0C12C4540332815410BD70B50600002A09DD002909DB521A0132042A00DD0422002A05DC03E0042202E0042200E090
:4015000000220024002007E06318F55C531E1B1BDB009D4028430134A242F5DC70BDC046F0B50025002711E0BB00C658F3B2FF22964308E06A008A181478A41952782270B8
:401540000135013BDBB2002BF4D10137102FEBD9F0BDC04610B50A00002103F0A2F910BD064B1B68002803D080221206134301E05B005B08014A13607047C04680033A404D
:4015800010B50323084A1360084A136080221206074B1A601022074B1A600022064B1A600120FFF7DDFF10BD300030403000314000003A4000033A40000E3F4010B503F008
:4015C0003BF903680C2B00D1FEE7FEE710B50300084A1068C318084A9A1A802A02DC054A136005E003F028F90C2303600120404210BDC046D00000200804002070B50F4E1E
:401600000F4D13E029686B68AC68002202E001C901C30432A242FAD1E868002202E0002102C304328242FAD11035013E002EE9D103F008F9FEF7C0FFFEE7C046010000006D
:40164000985A000010B50E4A136801218B43136000230AE0032B03D89A000A49505800E009489900094A885001332F2BF2D9FEF763FD034A116801230B43136010BDC046B1
:401680000000104000000000BD15000000000020024B1868C00801231840704704020440024B18688008012318407047040204400004000C014B18607047C04648022040C9
:4016C0000004000C014B18607047C046540220400004000C014B18607047C0464C02204070B504000D0001F0E0FBAC40024B1C6001F0DFFB70BDC0460800204010B501F091
:40170000D4FB064A116820230B43136001F0D1FB18212020FFF7E4FF10BDC04600002040014B18607047C0467802204010B50D4C8023DB042360236823600020FFF7B8FF72
:40174000236823600C22084B1A600120FFF7E8FF3122064B1A600648FFF7B2FF0020FFF7B7FF10BD400220406402204068022040FF7F000010B5064B1B78002B04D1FFF767
:40178000D5FF0122024B1A70FFF7B8FF10BDC046E1010020014B98647047C0460000002010B5040001F081FB044A1168044B0B40A4051C43146001F07CFB10BD00E400E0A8
:4017C000FFFF3FFF0422014B1A60704700E100E00422014B1A60704780E100E010B50400FFF7F6FF2000FFF7D5FF0320FFF7D8FFFFF7E8FF10BDC046024B1868000901232D
:401800001840704704060440024B18684008012318407047040C0440014B1878C0B2704765000F4010B501F040FB044A117810230B43DBB2137001F03CFB10BD95000F40C4
:40184000054B1A6801210A431A601B68194201D1012000E00020704704002E4010B50E4A0E4B1A60FFF7ECFF1C2000F0E9FF0C4A116801230B431360F0231B0100E0013BCF
:40188000002B03D0064A1268D207F8D5002B01D1012000E0002010BD0110000000002E4010002E4003B2002B0DDB094A1168094B0B400004034313601268074B13409842E9
:4018C00003D0012002E0022000E000207047C04614002E40FFFF00800000FF7F002809D10C4B19680C4A0A401A601B68DB040CD501300DE0074B1A68802149010A431A60DA
:401900001B680B4203D1012002E0002000E000207047C04614002E40FFEFFFFF70B5841EE4B20D2C35D88C1EE4B2052C03D9002B31D1012931D1032A31D8904231D391428D
:4019400031D31C4D2C68240AE4B20F26B44320432E68194C3440000204432C602C686040F0242401204220D1002B00D002234901C9B29200D2B2114319430E4A1368EE2083
:4019800083430B4313601368034099420FD0ED380EE002200CE002200AE0022008E0022006E0022004E0022002E0012000E0002070BDC04614002E40FFF0FFFF002809D11A
:4019C0000B4B1A6810218A431A601B6819420BD001300CE0064B1A6810210A431A601B68194203D1012002E0002000E00020704714002E40002809D10B4B1A6801218A431F
:401A00001A601B6819420BD001300CE0064B1A6801210A431A601B68194203D1012002E0002000E00020704714002E40054B18601B681B041B0C984201D0012000E000202F
:401A40007047C04604002E4010B503785B01204A944663441F4A41680A431A6003785B01634419681C4A11401C4A44682240914224D182681A6103785B0163441A69816896
:401A80008A421DD1C2685A6103785B0163445A69C1688A4216D1012252429A6103785B0163449A6901320FD10022DA6103785B016344DB69002B09D0012008E0012006E0F1
:401AC000012004E0012002E0012000E0002010BDA0002E40800080007F007F007FFF7FFF10B503781B01104A944663440F4A41680A431A6003781B01634419680C4A114082
:401B00000C4A4468224091420AD182685A6003781B0163445A6883689A4203D0012002E0012000E0002010BD20002E4008008000F7007F00F7FF7FFF70B500240AE06300CE
:401B40001B199800104B1818FFF7CAFF002805D10134E4B2072CF2D9002500E00125002D0BD00FE0230108486030C018FFF76CFF002806D10134E4B200E000240F2CF1D956
:401B800000E00125280070BD6C540000002809D10C4B19680C4A0A401A601B689B040CD501300DE0074B1A68802189010A431A601B680B4203D1012002E0002000E0002068
:401BC0007047C04614002E40FFDFFFFF10B580221206344B1A60344A136801218B431360C8231B0200E0013B002B03D02E4A1268D207F8D4002B4AD01C2000F02BFE2B492F
:401C00001C2000F033FE03211C2000F041FE1320FFF748FE00281AD1FFF760FE002818D1FFF7B4FF002816D10023022202210B30FFF774FE002810D10130FFF7BFFE0028F7
:401C40000DD1FFF7D7FE00280BD001230AE0012308E0012306E0012304E0012302E0012300E00023002B14D1FFF766FF002812D10F48FFF7DBFE00280FD10B4B1A680721BB
:401C80008A431A601B68194209D0013008E0012006E0012004E0012002E0012000E0002010BDC04600042E4010002E40DD1C00000110000010B5084B1B78002B02D1FFF771
:401CC00085FF00E00020002804D10122024B1A70FFF7C4FD10BDC046E20100207047C046F8B54F464646C0B4040001200023984691E04C4B1B6832041A427AD12379002B88
:401D000001D1002701E08027BF036379002B07D12B01454A94466344226852055A6009E080235B031F432B013F4A944663442268D2005A60A379072B03D81B041F43B94669
:401D400003E080231B031F43B946E379002B03D004234A461A43914600232AE0032B13D92801324A94466044026894465907CA1AD1003831FF228A4067469743E268D25C03
:401D80008A403A43026012E02801274A94466044826894465907CA1AD1001831FF228A4067469743E268D25C8A403A4382600133DBB2A279934201D2072BCFD91C2000F0B1
:401DC00049FD2B01184A94466344194A4F4617431F60227A002A04D0196803220A431A6003E0196801220A431A601C2000F028FD00207600F6B2002807D00135EDB201E024
:401E000001260025072D00D873E7002806D043460133DBB298464346022BF1D90CBC90469946F8BD08002E4020002E402C002E400800800010B50A2000F002FD10BDC04641
:401E400010B500F091F810BD10B500F01FF810BD10B5054A1368802109060B431360FFF7E9FFFFF7EDFF10BD0000254010B5064B1B78002B04D1FFF7E7FF0122024B1A704D
:401E8000FFF7E6FF10BDC046E401002070B51E4A1E4B1A6000241E4B1C601E4A1E4B1A601E4B1F4A136007211E4A11601E4A146006391E4A11601E4A13601E4B1C60042588
:401EC0001D4B1D600A2000F0C5FC03210A2000F0DFFC1A490A2000F0C9FC194B1C60194B1C60194B1C60194B1C60194B1D60194B1C601A68184B1A80184B1C60184B1C6049
:401F0000184B1C7070BDC0460B000002000025404000254001000A00480025400700008000032540040325401003254044002540000225400402254050002540D52E0000AA
:401F4000880E2540C80E2540480F2540080F2540C80F2540880F2540EC010020FC030020E4030020F903002005490B68F0229343603A13430B60034B1A88034B1A607047F9
:401F800000030240EC010020880F254070B50500002402E000F090FF0134285D0028F9D170BDC046024B1868800801231840704704040440024B1868C008012318407047A9
:401FC00004040440024B1868000901231840704704040440024B1868400901231840704704040440034A117880235B420B43DBB21370704775000F40014B18707047C0462B
:4020000086000F40014B1878C0B2704766000F4010B50100014800F0E3FD10BD24000F4010B5024800F0E6FD10BDC04644000F4010B50100014800F0D3FD10BD04000F40BB
:4020400010B501E0FFF7ECFFFFF7DCFF0307F9D410BDC04610B50B4C2000FFF7D9FF2000FFF7E6FF00F021FF074A117810230B43DBB2137000F01DFFFFF7E2FF0120FFF7E4
:40208000BBFF10BD3F420F0096000F4010B5064B1B78002B04D1FFF7DDFF0122024B1A70FFF7A0FF10BDC046EE010020014B58657047C0460000002010B5040000F0F5FEA6
:4020C000044A1168044B0B40A4031C43146000F0F0FE10BD04E400E0FF3FFFFF2022014B1A60704700E100E02022014B1A60704780E100E010B50400FFF7F6FF2000FFF70C
:40210000D5FF0320FFF7D8FFFFF7E8FF10BDC04604490A68D2B204239A43800018401043086070470000044004490A68D2B202239A434000184010430860704700000440C3
:40214000044A1368DBB201218B430840184310607047C0460000044004490A68D2B208239A43C000184010430860704700000440114B1B68022B1AD80F494A68581C086008
:4021800050008218D3189B000C4A9B580C4A1268D3400C4A12681340D8B20B4A1070180AC0B210701B0C8B60DBB2137002E01122064B1A707047C046F0010020BC0300202E
:4021C000CC030020C803002041000F4071000F402122164B1A70164A536801335360002B1FD1DBB2134A1370114A53685900CB189B0011495B5811490968CB401049096863
:402200000B40D8B20F490870180AC0B208701B0CD360DBB20B70012313600922034B1A7002E00122084B1A607047C04671000F40F001002070000F40BC030020CC03002004
:40224000C803002041000F40D0030020002804D00023114A5360114A13700F4843685A00D3189A000E4BD3580E4A1268D3400E4A12681340D9B20D4A1170190AC9B21170F4
:402280001B0CDBB21370012303601922084B1A700022084B1A607047F001002070000F40BC030020CC030020C803002041000F4071000F40D003002010B500210BE04B00BA
:4022C0005B189B189B00054C1851013200E00022022AF4D901310029F9D010BDBC03002010B5FFF7E9FF0120FFF7B0FF10BDC04600280BDB002909DB022807DC002905DCF7
:402300004B00591808188000014BC2507047C046BC03002002280FD002D8012805D020E0032810D0042815D01BE0114A114B1A600122114B1A601AE0104A0E4B1A600222DA
:402340000D4B1A6013E00E4A0A4B1A6003220A4B1A600CE00B4A074B1A600422064B1A6005E0094A034B1A600022034B1A6070477F7F7F00C8030020CC0300203F3F3F00CA
:402380001F1F1F000F0F0F00FFFFFF0010B50322144B1A702E32144B1A70093A134B1A70103A134B1A70134C012323700020FFF783FF00232370002000F026F80020FFF775
:4023C000A9FF0D4B1B7D002B08D101220A4B1A750A4800F0EBF80A4800F01AF90122094B1A6010BD90000F4040000F4020000F4030000F4071000F40F0010020D1210000E3
:4024000071210000D003002000280CD10C4A0D4B1A6005220C4B1A6002320C4B1A6019320B4B1A600BE0064A064B1A600522064B1A600232054B1A601932054B1A60704710
:40244000AC570000DC030020D4030020E0030020D80300200004000C014B18607047C046080220400004000C014B18607047C046140220400004000C014B18607047C046D2
:402480000C02204070B504000D0000F00EFDAC40024B1C6000F00DFD70BDC0460800204010B500F002FD064A116810230B43136000F0FFFC18211020FFF7E4FF10BDC046C2
:4024C00000002040014B18607047C0463802204010B50D4C8023DB042360236823600020FFF7B8FF236823600C22084B1A600120FFF7E8FF3122064B1A600648FFF7B2FF49
:402500000020FFF7B7FF10BD000220402402204028022040FF7F000010B5064B1B78002B04D1FFF7D5FF0122024B1A70FFF7B8FF10BDC0460502002004490A68D2B2082390
:402540009A43C00018401043086070470005044004490A68D2B202239A434000184010430860704700050440014B18647047C0460000002010B5040000F097FC044A136859
:40258000C0218B43A4011C43146000F092FC10BD00E400E00122014B1A60704700E100E00122014B1A60704780E100E010B50400FFF7F6FF2000FFF7D7FF0320FFF7DAFF11
:4025C000FFF7E8FF10BDC046014B58647047C0460000002010B5040000F067FC044A1168044B0B40A4031C43146000F062FC10BD00E400E0FF3FFFFF0222014B1A60704793
:4026000000E100E00222014B1A60704780E100E010B50400FFF7F6FF2000FFF7D5FF0320FFF7D8FFFFF7E8FF10BDC046074B1B78272B05D8064B1B78DBB2064A136004E08D
:40264000054B1B78DBB2034A1360704702F3FF0F42F3FF0F20FF0B40C1F1FF0F00230AE0204A12683F210A401F49C95C8A4201D1033303E001332D2BF2D903231B4A1278B8
:402680001B2A16D8302B05D1194B1B78DBB2194A136006E0182B04D1174B1B78DBB2154A136016490B681F229343173A13430B6016E0302B05D1124B1B78DBB20D4A1360A1
:4026C00006E0182B04D10F4B1B78DBB2094A13600A4A13681F218B430B4909780B4313607047C0462CFF0B408C59000002F3FF0F3FF3FF0F28FF0B403EF3FF0F34FF0B409F
:40270000C3F1FF0FC2F1FF0FC0F1FF0F00230AE00D4A12683F210A400C49C95C8A4201D1033303E001332D2BF2D9032308490868084A02400A60084A944663441B78DBB26F
:40274000064A13607047C0462CFF0B408C59000000002240FFFFFFBF4DF3FF0F28FF0B40034B18688023DB05184000D0012070470000224010B50B4A136801218B431360F5
:40278000094B1A68094B1A60094A12685A60FFF765FFFFF74BFF074A116802230B43136010BDC04650000C4034FF0B400802002020FF0B4024002C4030B500230AE0134A44
:4027C00012683F210A401249C95C8A4201D1033303E001332D2BF2D903230E490A68022082430A600C4C21681F2291430B4805682A400A4322604168094A1160094A94465E
:4028000063441B78DBB2084A136030BD2CFF0B408C59000024002C4034FF0B400802002020FF0B404DF3FF0F28FF0B40034B1B680220184000D001207047C04624002C40D9
:402840001F2318401E3B8340014A13607047C04600E100E01F2318401E3B8340014A13607047C04680E100E001BE704770B504000D001F2802D90020FFF7F6FF1034A40033
:4028800080239B059C4664442068256070BDC04670B504000E00032902D90020FFF7E4FF1F2C02D90020FFF7DFFF03252540ED00063500F0FAFAA408A400074B9C466444F5
:4028C00021680323AB4099430B003100A9401943216000F0EEFA70BD00E400E010B5040006E0084B586800F0D7FA074B9C46644480231B029C42F4D8024B9868604300F0EE
:40290000CBFA10BDD40000200080FFFF70B582B000F084F9002862D000F0C7FA0500314A116801230B43136000230AE02E4A12683F210A402D49C95C8A4201D1033303E0EB
:4029400001332D2BF2D903230021294A1160294A1268D20606D1274802681F318A4313390A430260244C2168244A1140244A5A438023DB019C466244D20B013A5205520DB0
:402980000B001343A0225203134323601D4B1B680193302000F0DAFA1B4A13688021C9050B4313602668194B1E40002407E00120FFF794FF1034A30533430F4A1360EE2CD6
:4029C000F5D90120FFF78AFFFF239B051E430A4B1E60019A0B4B1A60280000F06AFA02B070BDC04650000C402CFF0B408C59000028FF0B4034FF0B400800224000F800C09E
:402A000040420F003000104000002240FFFF3FC010B5034B1B7B584300F03EFA10BDC046D4000020F0B55F4656464D464446F0B483B0040000F039FA0190FFF791FE0028B4
:402A400004D0FFF763FE01239A4601E000239A46FFF7ECFE002808D0182C01D0302C07D1FFF7AAFE01239B4604E000239B4601E000239B46E61E2D2E74D8464B1B78DBB24E
:402A80009C4208D8444B1B78DBB29946434B1B78DBB2984631E0424B1B78DBB29C4208D8404B1B78DBB299463F4B1B78DBB2984623E03E4B1B78DBB29C4208D83C4B1B782C
:402AC000DBB299463B4B1B78DBB2984615E03A4B1B78DBB29C4208D8384B1B78DBB29946374B1B78DBB2984607E0364B1B78DBB29946354B1B78DBB29846344B9F5D2F2FCE
:402B000009D92A2C07D91922314B1A60052000F0C3F9192503E02E4B1D683F231D40BD4206D92A4B9A5D2A4B1A60052000F0B4F9254B9C4664442378DBB2264A1360264B2C
:402B40004A461A60254B42461A600520FFF760FFBD420AD21D4B9A5D1D4B1A60052000F09BF902E00020FFF77FFE5346012B01D1FFF7CCFE5B46012B01D1FFF7FBFD0198A8
:402B800000F097F903B03CBC90469946A246AB46F0BDC04640F3FF0F41F3FF0F42F3FF0F43F3FF0F44F3FF0F45F3FF0F46F3FF0F47F3FF0F48F3FF0F49F3FF0F4AF3FF0FA7
:402BC0004BF3FF0F4CF3FF0F4DF3FF0F8C5900002CFF0B4028FF0B401CFF0B4020FF0B40CBB203700B0ADBB24370090CC9B281707047C0460378427812021A4383781B040E
:402C00001A4310007047C046034B1868C0231B02184000D00120704700010B40034B1B68002B01DA012000E0002070470000224010B500F03AF9044A1368C02109020B4354
:402C4000136000F036F910BD00010B4010B500F02CF908490A68084B1A408024E40122430A600A6813408022120213430B6000F020F910BD00010B40FF3FFFFF70B5050043
:402C800000F013F90400FFF7BFFF002803D0FFF7DDFF012100E0002108482840084A1568084B2B40184310601368012901D1FFF7BFFF200000F0FDF870BDC04604040400F1
:402CC00010020B40FBFBFBFF10B5244B1B685B0715D5234B5B685B070ED5224B596A042001401F4C62688A4362605A6A82435A629B69002B00D098470420FFF7BFFF174B58
:402D00001B685B0518D5164B5B685B0510D5154B596A8022D2001140114842688A434260596A114A0A405A62DB69002B00D098478020C000FFF7A2FF084B1B685B030CD5B2
:402D4000074B5B685B0304D5064B1B6A002B00D098478020C002FFF791FF10BD10020B40E800002028020020FFFBFFFF014BD8647047C0460000002010B5040000F095F850
:402D8000044A13689B009B08A4071C43146000F090F810BD00E400E00822014B1A60704700E100E00822014B1A60704780E100E010B50400FFF7F6FF2000FFF7D7FF032072
:402DC000FFF7DAFFFFF7E8FF10BDC046014B18657047C0460000002010B5040000F065F8044A1368C0218B43A4011C43146000F060F810BD04E400E01022014B1A6070471C
:402E000000E100E01022014B1A60704780E100E010B50400FFF7F6FF2000FFF7D7FF0320FFF7DAFFFFF7E8FF10BDC046034A1368802149020B4313607047C04604003A40EF
:402E4000020083070CD0074B1B680120184001D19307F8D4002804D00122024B1A6000E00020704710023A4010B5041E02D00020FFF7FAFC002C07D1A400054B9C466444F4
:402E800020680004000C00E0002000B210BDC04680013A40000000000230800803D00138FDD1C046C046C0467047EFF3108072B6704780F310887047044B1B681F22134024
:402EC000082BF9D0024B18607047C046080225404002254010B5144B1B68002B00D09847124B1B685B071DD5114B1B680133112B00D100230F4A1268934205D10E4B1B68EC
:402F000020220E4B1A7006E00B4A1268D2B20C49CA54074A13600B4B1B68DB06E4D10422094B1A6010BDC046E8010020CC0F2540FC030020E403002040032540F903002093
:402F4000E803002008032540C00F254070B50400FFF7ABFF0500102C05D8104A136803218B43136016E0202C07D80C490B6803229343023A13430B600CE0302C07D8074929
:402F80000B6803229343013A13430B6002E00020FFF76AFC2800FFF78CFF70BD30001040002243088B4274D303098B425FD3030A8B4244D3030B8B4228D3030C8B420DD3E4
:402FC000FF22090212BA030C8B4202D31212090265D0030B8B4219D300E0090AC30B8B4201D3CB03C01A5241830B8B4201D38B03C01A5241430B8B4201D34B03C01A52418C
:40300000030B8B4201D30B03C01A5241C30A8B4201D3CB02C01A5241830A8B4201D38B02C01A5241430A8B4201D34B02C01A5241030A8B4201D30B02C01A5241CDD2C3095B
:403040008B4201D3CB01C01A524183098B4201D38B01C01A524143098B4201D34B01C01A524103098B4201D30B01C01A5241C3088B4201D3CB00C01A524183088B4201D3B4
:403080008B00C01A524143088B4201D34B00C01A5241411A00D20146524110467047FFE701B5002000F0F0F802BDC0460029F7D076E7704703460B437FD4002243088B42DF
:4030C00074D303098B425FD3030A8B4244D3030B8B4228D3030C8B420DD3FF22090212BA030C8B4202D31212090265D0030B8B4219D300E0090AC30B8B4201D3CB03C01A1D
:403100005241830B8B4201D38B03C01A5241430B8B4201D34B03C01A5241030B8B4201D30B03C01A5241C30A8B4201D3CB02C01A5241830A8B4201D38B02C01A5241430AE1
:403140008B4201D34B02C01A5241030A8B4201D30B02C01A5241CDD2C3098B4201D3CB01C01A524183098B4201D38B01C01A524143098B4201D34B01C01A524103098B42E2
:4031800001D30B01C01A5241C3088B4201D3CB00C01A524183088B4201D38B00C01A524143088B4201D34B00C01A5241411A00D201465241104670475DE0CA0F00D04942D1
:4031C000031000D34042534000229C4603098B422DD3030A8B4212D3FC22890112BA030A8B420CD3890192118B4208D3890192118B4204D389013AD0921100E08909C309F0
:403200008B4201D3CB01C01A524183098B4201D38B01C01A524143098B4201D34B01C01A524103098B4201D30B01C01A5241C3088B4201D3CB00C01A524183088B4201D3F2
:403240008B00C01A5241D9D243088B4201D34B00C01A5241411A00D20146634652415B10104601D34042002B00D54942704763465B1000D3404201B5002000F005F802BD13
:403280000029F8D016E770477047C0468446101C62468C46191C634600E0C0461FB500F019FF002801D40021C8421FBD10B500F06DFE4042013010BD10B500F00BFF002811
:4032C00001DB002010BD012010BDC04610B500F001FF002801DD002010BD012010BDC04610B500F093FE002801DC002010BD012010BDC04610B500F089FE002801DA0020EA
:4033000010BD012010BDC046F8B556465F464D464446F0B40F00FD0FAA4609037C002E005F00450F490A7F0D2943C5001803BC46400A570F640DDB0F3843D2009A4500D174
:40334000AAE06646A61B002E00DCFFE06346002B39D10300134300D0D9E06B0709D00F232B40042B05D02B1DAB42AD416D4249191D000B0200D482E0CA4B01349C4200D134
:40338000FEE00A005646C84BED081A405007640552020543120B640D002112030B0D1B056405120B1A436308C04CF60714401C43640064083443280021003CBC9046994688
:4033C000A246AB46F8BDB74B9C42C6D080231B041843382E00DDEBE01F2E00DD1EE120239B1B9C4603006746BB40984613004746F3403B436746BA40571EBA411343020051
:40340000F240EB1A9D42B6411D008A1A7642911B0B0231D54A02560A002E00D1B4E0300001F0ECF90300083B1F2B00DDB5E020222900D21AD1409E400A009D4032439C4280
:4034400000DDB1E01C1B631C1F2B00DDD5E0202114002800C91A8C40D8408D400443DA40681E854111002543002476E74146314300D134E2310045466B0700D06FE75646C2
:403480004807ED08C9080543864B9C4235D00A036405120B640D7FE76346E31A9B46002B00DC8BE06746002F3CD07E4FBC4200D153E780273F0438435B46382B00DCF7E0BE
:4034C0000243501E82410020D2B253194218AB4289411D00494289180B02CDD5714B01349C4200D13DE101206F4A6B080A4028401843D507054351082FE72B000B4300D148
:40350000CBE180231B030B431A03120B44E7013E002E6DD1AE1AB5429B41091A5B42C91A350075E70700174300D116E701235B429C46E3445B46002B00D0E0E0AA18AA42EE
:403540009B4109185B4259181500C5E7002E75D1661C7605760D012E00DCF3E0AE1AB0464545BF410E1A7F42F61B370200D48FE0551BAA42B641411A76428E1B9A464BE7CE
:4035800056460022002507E7280001F037F920300300083B1F2B00DC49E72A002838824000259C4200DC4DE73F49E41A1140D4E60243501E8241D3B2002222E7002B00D0F4
:4035C000F3E0631C9C465B055B0D012B00DC9FE0344B9C4500D1C3E0AA180918AA42804140424118CD075208154349086446B4E62C4B9C4200D0ECE6AFE611001F3CE140D5
:403600000C00202B00D17FE04021CB1A9A4015436A1E95410021254300242DE733000700203BDF403B00202E70D04027BE1BB0400243501E824113430022E2E6002C4FD0BE
:40364000184CA44500D1ABE08024240476422143382E00DDDFE01F2E00DD43E12027BC1BA1460C004F46BC40A0462C004746F4403C434F46BD406F1EBD41F1402C43151B88
:40368000AA429241411A5242891A64469A46BFE641464546314300D0BEE6002600240025F2E6C046FF070000FFFF7FFFFFFF0F801F2B59DC2027FF1ABC46070063469F40C4
:4036C0005B46B9461700DF40B8464F4643461F4363469A40531E9A415B463A43D840F4E60C002C435CD0F643002E55D1551BAA42A441411A6442091B9A46644688E6964F20
:40370000BC4200D0D8E628E6002280E700208FE70B002B43002C00D0C2E0002B00D101E10300134300D118E6AB18AB42B6410918764271180A0200D409E1884A1D001140A0
:4037400064460AE6002C5BD10E002E4300D08AE00100114300D1C2E0010015009A46FCE56446002100258FE620235B429C46DC4463460700DF405B46BC46202B00D1ACE09E
:4037800040235F46DB1B98400243501E8241634613431A00002098E66F4CA44500D057E70100150064469A46D7E5002C39D10C002C436ED0DB43002B1AD0674CA44568D002
:4037C000382B00DDA4E01F2B00DDAEE020240F00E41AA740B9462F00DF40B846A3464F46444627435C46A5406C1EA541D9403D43AD1895429B4109185B42591864466BE629
:403800000C002C4315D1010011437BD0010015009A46514CA1E50D43691E8D410021ECB22DE74D4CA44534D0802424045B422143C6E7040014434ED0ED084C072C43802521
:40384000C9082D03294208D0C6082E4205D1D208410711430C009A463100620FC900E50011433D4C79E50600164300D175E5AE1AB0464545BF410E1A7F42F61B370200D42A
:40388000F4E5551BAA42B641411A7642891B9A4663E50100150064465FE5002200257BE5002B3BD00300134315D0ED084B072B438025C9082D03294207D0C4082C4204D132
:4038C00041070B002100D2081343C9005A0F1143DD00214C41E5204C3FE5002054E700260025D1E534000F00203CE7403C00202E2BD04027BE1BB1400D43691E8D41002100
:403900002C43BCE6802100260903134C0025BBE50D43691E8D410021EDB269E7010015000D4C1AE50100150017E51C000F00203CE7403C00202B0CD04027FB1A99400D4394
:40394000691E8D410021254352E70021D4E71D0092E50021F3E7C046FF070000FFFF7FFFF0B556464D4644465F46F0B41D000E034C00CB0F87B0070092468146360B640DB3
:4039800098466AD06D4B9C4235D08022430F12041343F6001E43C3009946694B00279C460023644402932B0368001B0BED0F51469B46400D009500D178E0604B98426CD0E2
:4039C0005B46DA004B0F802109040B4313439B465346D9005A4B9C46002360444246201A6A40924601901F430F2F00D9B0E05548BF00C0598746374300D088E0002399462B
:403A00000233082700260293CDE74346B34649460093029B009A9246022B00D0BFE1002153460122002689461A40444B002136030C0D2405360B2643434C1B0526401E43EC
:403A40007600D207760816434846310007B03CBC90469946A246AB46F0BD330003434FD0002E00D1BCE1300000F0C8FE03000B3B1C2B00DDADE11D220100D31A08393A00BA
:403A80008F408E40DA40B9461643304B00279C46002360444442029385E753465A4613432CD1002300219B46023397E70B4320D05B46002B00D19EE1584600F09FFE030039
:403AC0000B3B1C2B00DD8FE102005946083A91408B461D21CB1A5146D9400B0059460B4351469B469140194B9C4660444042002374E7002300219B4601336FE703236DE740
:403B00000023994601330427002602934BE703230C27029347E70122D51A382D00DCB0E153461A4000210023002689467EE700238026994600223603004B77E7FF070000F4
:403B400001FCFFFFBC590000FFFF0F80F30300005E4500D972E100D16DE1019B4D46013B01930023340002935B461E020B0E1E430B020393330C994633041B0C49462000D0
:403B80000093FFF70DFA009B370043430600494620009846FFF78AFA2C0C09040C43A04509D9E419731EA74200D95CE1A04500D859E1023EE4194346E41A49462000FFF7C8
:403BC000EFF90300009A80465343494620009B46FFF76CFA2A040904120C0A4393450DD94346D219013B974200D93AE1934500D837E102235B429C46D219E0445B46D21A0F
:403C00004346360433439B460399180C0B0C1D00059309045B46090C0C001B041B0C4443049159436B4368431B190D0CEB189C4203D980246402A44660441C0C09041B04C2
:403C4000090C20185D18824200D2DEE000D1D7E0161A029B9C465D1BAC459B415B42F61AB74200D106E149463000FFF799F9009B04004343494630009846FFF717FA2E0C0A
:403C800009040E43B04509D9F619631EB74200D9F3E0B04500D8F0E0023CF6194346F31A494618000293FFF77BF9009B06004343494602989846FFF7F9F92D0409042D0CE7
:403CC0000D43A84509D9ED19731EAF4200D9D6E0A84500D8D3E0023EED192404210043463143049E059A3000ED1A0B040C0C1B0C58436643534354439A19030C9B189E42FE
:403D000003D980225202944664441A0C00041B04000C14191B18A54250D34DD001231943964A019B94466344002B00DCF3E64A0709D00F220A40042A05D00A1D8A42894191
:403D400049428B4411005A46D20108D55A468C4B1A4093468022D2009446019B6344894A934200DD5BE65A46C908500708435602514601225B058146360B5B0D0A4055E60D
:403D800080231B031E4211D05A461A420ED15E461E433603360B2A0089467B4B46E6032B00D1E1E0012BBBD11A40BBE61E433603360B4246744B39E6002BB1D07D194A1E5E
:403DC000AF4252D91100A542A8D1039A9A42A5D1A6E703003E00283B9E400023994654E600F00CFD203041E603005246283B9A400021934677E6504600F000FD20305EE646
:403E0000029B0026AB4200D323E7039E0299B44661448846B045B6415B467642F619B218013B0291974213D290424FD800D18EE0161A9B460DE7894500D28EE674084B4643
:403E4000F60735005B081D434B46DB0702938BE69742EDD10399029CA142E5D93E1A9B46F7E69846CAE61E00A5E6AC423ED874D0110053E70121494252E71C000EE71E006D
:403E80002BE71F2D3CDC20230A0058465B1B9840EA4099400243481E81415E461143EE404B0709D00F230B40042B05D00B00191D99429B415B42F61833023CD5534601226C
:403EC00000211A40002601238946AFE502235B429C46039CE344A446029B63449846A045B6417642F6190293B218B1E603988A1E41008142B6417642F619AD19039161E7E4
:403F00001F225242D31A5A46DA401300202D29D040225846551BA8400143481E814107200B4318400026002809D00F2200261A401900042ABBD10B0070077602360BDB0852
:403F400003439946012253461A4000236EE502998D42BBD89B4600267BE603989842C5D3110032E70020D7E780265B4636031E433603360B009A8946034B57E5FF030000C6
:403F8000FFFFFFFEFE070000FF070000F0B55F4656464D464446F0B41F035C00DB0F9A46194B0E034D00C90F8046360B6D0D8B4691463F0B640D9D4219D0134B9C421BD09F
:403FC0000123A54206D018003CBC90469946A246AB46F0BDBE42F6D1C845F4D1D34510D0002DF0D1304303005A1E9341EBE7310001230143E7D1E0E73A430123002AE2D1EC
:40400000DEE70023DFE7C046FF070000F0B55F46444656464D46F0B41F033C0B2C4F0E034D00A3465C008446360B6D0DC90F9046640DDB0FBD422BD0254FBC422ED0002D73
:404040000ED130430700814678427841002C17D15F463A4314D14B460020002B0AD006E0002C02D15846024301D099421AD00123484218433CBC90469946A246AB46F0BD42
:404080000028F2D058425841012240421043F1E737000743D0D002204042EBE75F461743CDD0F8E7A542E2DC05DB5E45DFD808D000205E45DED248424841012340421843C3
:4040C000D8E7C445D3D80020C445F4D3D2E7C046FF070000F0B55F464D4644465646F0B41C03240BA4462F4C0F034D005E00C90F80463F0B6D0D8B469146760DDB0FA54223
:4041000020D0284CA64222D0002D12D1384344424441002E20D0002C0DD05C42634101245B421C4320003CBC90469946A246AB46F0BD002E17D05B4519D05B465C420123CD
:404140001C43EFE7390002240143EBD1D9E7614602241143E6D1D7E761460A43DBD100240028DFD0E9E761460A43E4D1E5E7B54203DD01225C421443D4E7B542CDDB674580
:40418000DBD809D000246745CCD259464C426141012449420C43C5E7C845CED80024C845F3D3BFE7FF070000F0B55F4656464D464446F0B40D0399464E002B0B87B00700DD
:4041C000924680469B46760DCC0F002E69D06D4B9E4235D05B468022DD001204430F13432B439B46C3009846674B00279C460023664401934A4615035000D20F53462D0B4A
:40420000400D914600D176E05E4A90426CD080225B0F120413435C4AED0094461D4353460022DB00604449463618701C6140029017430F2F00D9AFE05448BF00C759BF46E2
:404240005B461F4300D088E000239B469846023308270193CEE74946022A6AD0032A00D109E2012A00D0BBE111400022002300259046CCB200212D030A0D12052D0B1543E1
:40428000434A1B0515401D436D00E4076D0825434046290007B03CBC90469946A246AB46F0BD034352D05B46002B00D18AE1584600F0A4FA03000B3B1C2B00DD7BE11D222A
:4042C000D31A3A0001005D46DA4008398D4013008F402B439B46B8462E4B00279C46002360444642019385E752462A432CD100250023022297E752462A4321D0002D00D1EB
:4043000054E1280000F07AFA03000B3B1C2B00DD46E11D21CB1A51460200D9405346083A954093400D431B4A944660444042002279E7012400220C40124B0025904699E72E
:404340000025002301226EE703226CE700239B4698460133042701934CE703230C27019348E700238025984600242D03054B81E75D464346019A6FE75D4643462100019A2A
:404380006AE7C046FF07000001FCFFFFFC590000FFFF0F80F30300004246120C91461A0C9446424617044A461B041B0C5A43604690464A4642431000039262461C003F0CF5
:4043C0007A437C4342440192220C9246019A5244904506D98246802040028046C24450460390100C049048462404240C1204121905922A0C2D042D0C68432C008246484663
:404400007C4350438146200C8046574357444744BA4503D9802040028046C144380C3F04B84648442404240C01900498A044404404905846000C814658460404200C82468C
:40444000070048465F434C464343604660436446834650464443380C8446E4186444A34203D980235B029C46E34448463F04230C3F0C2404E419574668436F4384464D46D1
:40448000504655434243380C814662444A445B44944503D9802040028446654403983F04834604983F0C8446E344C345804140428246100484460198674484466744A34451
:4044C000BC46A345A4419946D44464428742BF41D4458041E144A04699459B417F424042C8440743120CBA18A045A4415F423B0064422343D71843467D19DB0D6D021D43E8
:404500005B465A02059B1A43531E9A415B46DB0D1A4343465B021343EA0107D501225C0813402343EA07029E13436D08574AB218002A4BDD580709D00F201840042805D033
:40454000181D98429B415B42ED180300E80104D54F4A15408022D200B2184E48824200DDE7E60124DB08680718436D02530580462D0B5B0D0C407DE6802259461203114262
:4045800008D0154206D115432D0398462D0B4C46414B6FE65D4615432D032D0B3E4B69E603005546283B9D400023BCE6504600F025F92030A8E60300283B9F400023BB461B
:4045C000984689E600F01AF9203073E60124A61A382E07DD00220C4000230025904649E6029EA3E71F2E20DC20222C001800921BF040944093400443581E83411C43F54046
:40460000630709D00F232340042B05D023001C1D9C4292415242AD182B021FD5012400220C4001230025904624E61F202C004042821AD440202E1CD04022961BB5402B430E
:40464000581E83410720234318400025002809D00F2200251A401C00042AD8D1230068076D022D0B0124DB08034398460C40002300E60025E3E780220124120315432D0345
:4046800098462D0B0C40044BF4E5C046FF030000FFFFFFFEFE070000FF0700000B0330B5134D1A0B4B005B0DC90F0024AB4211DD104CA34210DC8024640322430E4CE41A6B
:4046C0001F2C0CDD0D48C31ADA4013005C42002900D11C00200030BD094BCC18FAE7E040084CA44663449A4013000343EEE7C046FE0300001D0400003304000013040000CA
:40470000FFFFFF7FEDFBFFFF70B5002830D0C317C4185C40C50F200000F070F8174B184A1B1AD21A1F2A18DD164AD21A9440002224035B05240B5B0D0021100024030A0D3A
:404740001205240B1443104A1B0514401C436400ED0764082C43210070BD210091400A000B21081AC4405B052403240B5B0DE3E70025002300240022DEE7C0461E0400003D
:404780003304000013040000FFFF0F8070B5051E28D000F033F8154B154A1B1AD21A1F2A16DD2C00134A0025D21A94405A052403240B520D002124030B0D240B1B05234310
:4047C0000D4C1205234013435B002800590870BD0B212C00081AC440954024035A05240B520DE7E700220024E4E7C0461E0400003304000013040000FFFF0F801C210123D5
:404800001B04984201D3000C10391B0A984201D3000A08391B09984201D30009043902A2105C40187047C04604030202010101010000000000000000014B18687047C04663
:40484000500100200E4B70B500251E000D4CE41AA410A54204D0AB00F35898470135F8E701F008F9084B00251E00084CE41AA410A54204D0AB00F35898470135F8E770BDF6
:40488000805A0000805A0000805A0000885A0000002310B59A4203D0CC5CC4540133F9E710BD03008218934202D019700133FAE7704700000EB410B59DB002A902900861BD
:4048C0000B48822488604861012040421FABC881084804CBA400006801938C8100F06EF80023029A13701DB010BC08BC03B01847FFFFFF7F50010020F0B58E6885B00700E1
:404900000C00039201939E4243D890238A89DB001A423ED003250969236801985B1A029363695D43EB0F5D19029B6D1001331B18AB4200D91D00530510D52900380000F0A6
:4049400037FB061E14D0029A2169FFF7A1FFA289194B134080221343A38112E02A00380000F086FB061E0CD12169380000F0D4FA0C23402201203B60A38940421343A38188
:4049800017E0029B2661F61826606561019EED1AA560019BB34200D21E0032000399206800F0A5FA0020A3689B1BA36023689E19266005B0F0BDC0467FFBFFFFF0B59FB0F1
:4049C000029005938B890F0016001B0610D50B69002B0DD1402100F0EBFA38603861002804D10C23029A01381360D8E040237B61002306AD6B6120336B761033AB76340091
:404A00002378002B03D1A31B049312D003E0252BF9D00134F4E7A31B320039000298FFF76BFF431C00D1B4E06A69049B944663446B612378002B00D1ABE0012200235242F7
:404A40006A6002A95432521801342B60EB60AB601370AB65534E21780522300000F03CFA002807D00123801B83402A68013413432B60EFE72B68DA0604D55322202102A8C6
:404A8000121811701A0704D553222B2102A81218117022782A2A03D0099B00200A210EE0059A111D12680591002A01DB099204E05242EA60022213432B6001340BE022789E
:404AC000303A092A04D84B4301349B180120F6E7002800D0099323782E2B1ED163782A2B0AD1059B02341A1D1B680592002B01DA01235B42079310E000230A201A00013433
:404B00006B6021783039092904D84243013452180123F6E7002B00D00792234E21780322300000F0D9F9002806D04023801B83402A68013413432B60217806221B48661CB3
:404B4000297600F0C9F9002812D0194B002B06D10722059B073393430833059314E005AB00933A00134B2900029800E000BF07E005AB00933A000F4B2900029800F08AF8A4
:404B80000390039B013304D06B69039A9B186B6135E7BB890B985B0601D5012040421FB0F0BDC0463E5A0000445A0000485A000000000000F9480000F7B5170001938A680B
:404BC0000B6900900C00934200DA130022003B6043321278002A01D001333B6023689B0602D53B6802333B60062523681D401ED0230043331B785A1E9341226892061CD55B
:404C00003020E1184331087021005A1C45310978A2184332023311700FE022000123193201990098089EB047431C0ED00135E3683A689B1A9D42F0DBDAE7220001994332CC
:404C40000098089DA847431C02D10120404220E006232068E1683A6803400025042B03D18D1AEB43DB171D40A3682269934201DD9B1AED180027BD420AD0220001231A3273
:404C800001990098089EB047431CDED00137F2E70020FEBDF0B58BB006920A0043320793059004920A7E0C00109B6E2A00D1ABE011D8632A22D009D8002A00D1B5E0582AE2
:404CC00000D0C5E045310A70814A4FE0642A1DD0692A1BD0BCE0732A00D1AAE009D86F2A29D0702A00D0B3E0202209680A43226037E0752A1FD0782A33D0A9E00E001A6873
:404D00004236111D196013683370A4E021681A68080606D4490604D5111D19600023D55E02E0111D19601568002D3BDA2D23049A6D42137036E021681A68080606D44906DA
:404D400004D51568111D1960ADB202E0111D196015685F4B227E039308276F2A1DD00A271BE022007821453211705A4A19680392081D226818600D68100602D4500600D5F0
:404D8000ADB2D30702D520231A4322601027002D03D1202322689A4322602300002243331A7002E00A274A4B03936368A360002B09DB0422216891432160002D05D1049E54
:404DC000002B11D07BE0002D79D0049E28003900FEF76CF9039B013E5B5C280033703900FEF7DEF8051EF1D1082F09D12368DB0706D563682269934202DC3023013E33709A
:404E0000049B9B1B23612BE009681A68080607D4490605D5111D19601368A28A1A8004E0111D1960136862691A600023049E236116E01A68111D1960166800216268300055
:404E400000F04AF8002801D0801B6060636803E0260042363270012323610023049A1370079B09AA00932100069B0598FFF7A4FE431C02D10120404227E0236932000699BA
:404E80000598079DA847431CF4D0236800259B070FD4099BE068984217DA180015E022000123193206990598079EB047431CE1D00135E368099A9B1A9D42F0DBE9E72600B4
:404EC000039B42361B7833708EE70BB0F0BDC0464F5A0000605A0000C9B28218904204D003788B4202D00130F8E70020704710B5884202D98B18984201D3002305E09B1AEC
:404F0000013A08D3995C8154FAE7934203D0CC5CC4540133F9E710BD70B50500002944D00C1F2368002B00DAE418280000F0D8F81E4A13681100002B02D16360146031E0A7
:404F4000A3420DD92268A018834203D118685B688218226063600C6024E0A24203D813005A68002AF9D11E689819A0420BD12168711858181960824214D11068526841184D
:404F800019605A600EE0A04202D90C232B6009E021686018824203D1106852684118216062605C60280000F09CF870BD54020020032370B5CD1C9D43083506000C2D01D29B
:404FC0000C2501E0002D01DBA94202D90C23336048E0300000F084F8234B1C681A002100002913D00B685B1B0DD40B2B02D90B60CC181EE08C4202D1636813601AE04B685D
:4050000063600C0016E00C004968E9E7174C2368002B03D1300000F051F820602900300000F04CF8431C18D00323C41C9C43A0420DD12560300000F054F8200007220B305A
:40504000231D9043C31A0ED05A42E2500BE0211A300000F033F8431CEBD10C233000336000F03FF8002070BD5402002050020020F8B506000C001500002904D11100FFF7E1
:4050800097FF040018E0002A03D1FFF745FF2C0012E000F027F885420ED929003000FFF787FF071E07D021002A00FFF7F1FB21003000FFF731FF3C002000F8BD002370B57D
:4050C000064C050008002360FCF780FA431C03D12368002B00D02B6070BDC04600040020704770470B1F1A68101F002A04DA891804390B68D0180438704700000000000049
:405100004279746525642025782020200000000049443A25782025782025780D0A00000044697020416464723A202578200D0A0000300F40000800400F40000800181018FC
:405140002014300C8503860D0020010204630502061C08040AD30C800F0511021401150216021A081B041F042301240128022B022E202F0130E0310232073304340C350166
:40518000361038023F15404545014725483149FF4AFF4BFF4DA0580459045A045B045C095D095F016040614062C064C066C0800C846D85578612870889A08A498B5F8D0161
:4051C00091029289932094A49504965397909B089E49A249A402A610AE0CAF57B0C0B238B30FB407B5C0B730B808BA02BBA0C026C50BC60CC70EC815C9FFCAFFCBFFD80461
:40520000D904DA04DB04DC99DD09DF01E2C0E440E501006402400404064007840A280D820E201020114012081542170818421A081B441CA41D021E20210822212580272618
:4052400029402B442C02300831203341372639453B803CA4404042104308472048224E14500251015208564057085E105F8064206780680869056B016D406F4075407708E0
:40528000822085088601C07FC2B6C4B7CA1DCCEFCE7BD021D228D630D8C0E4028C04A821B120B240010204020501080131013202350236013E443F11405149FF4AFF4BFF66
:4052C0004F015018580459045A045B045D015F016040624064406540668068806A806C806E809501A502B101B302C041C9FFCAFFCBFFCD83CE03CF01D018D280D604D904C3
:40530000DA04DB04DC30DD11DF01E040E240E440E540E680E880EA80EC80EE800120022019442211244027202F103608380642024642480159445A225C405F20674074019B
:405340007640874090069920B120B401C006CA40CC40CE03D098D208D63FD88002010E0130013E01404145EC4720482349FF4AFF4BFF4D834E034F015018540156045804BA
:405380005A045B045D115F016040624064406540668068806A806C806E8006421E8046424D044F0156025D045E805F0165018D019A409E02AF10B628C090D090D6D0D88086
:4053C000E640EC406A806F81730274027B0182408701DAC0DCE0DE20E240E6801B802B019F02A402A781C640CA100308042087029F02A402C0C0E6408C02A402AF08B4108A
:40540000EC405F028702D601030804400A800F808F40C003C20CE6029280B308B440EA06B640EA081101120A06000F4065300F4045310F4004330F403C340F4020350F4021
:405440001F360F4015370F400C400F4007410F4007420F4005430F4003440F4008450F4004460F4002470F4002600F40000000000800880000000000010000000800880057
:405480000000000002000000080088000000000003000000080088000000000004000000080088000000000005000000080088000000000006000000080088000000000008
:4054C00007000000080088000000000000000000A8008000FFFFFFFF0000000001000000A8008000FFFFFFFF0000000002000000A8008000FFFFFFFF0000000003000000A3
:40550000A8008000FFFFFFFF0000000004000000A8008000FFFFFFFF0000000005000000A8008000FFFFFFFF000000000600000000000000000000000000000007000000E9
:4055400000000000000000000000000008000000000000000000000000000000090000000000000000000000000000000A0000000000000000000000000000000B00000005
:405580000000000000000000000000000C0000000000000000000000000000000D0000000000000000000000000000000E0000000000000000000000000000000F000000B5
:4055C000000000000000000000000000FFFF0000FFCC0000FF990000FF330000FF000000B3006600990099006600B3003300CC001919B3000033990000409900006699002D
:405600000099990000CC990000E6660000FF000033FF000066FF000080FF000099FF0000B2FF0000CCFF0000E5FF000000000000000055000000AA000000FF005500000027
:40564000550055005500AA005500FF00AA000000AA005500AA00AA00AA00FF00FF000000FF005500FF00AA00FF00FF0000550000005555000055AA000055FF005555000091
:40568000555555005555AA005555FF00AA550000AA555500AA55AA00AA55FF00FF550000FF555500FF55AA00FF55FF0000AA000000AA550000AAAA0000AAFF0055AA000001
:4056C00055AA550055AAAA0055AAFF00AAAA0000AAAA5500AAAAAA00AAAAFF00FFAA0000FFAA5500FFAAAA00FFAAFF0000FF000000FF550000FFAA0000FFFF0055FF000071
:4057000055FF550055FFAA0055FFFF00AAFF0000AAFF5500AAFFAA00AAFFFF00FFFF0000FFFF5500FFFFAA00FFFFFF00FF800000FF008000FF00FF008000FF000080FF00DD
:4057400000FF8000FF0000002020200000002000000000100000000000000000000000000000000000000000000000000000FF000010F0000020E0000030D0000040C0001C
:405780000050B0000060A00000709000008080000090700000A0600000B0500000C0400000D0300000E0200000FF0000000000000000005F00000007000700147F147F1443
:4057C000242A7F2A12231308646236495522500005030000001C2241000041221C00082A1C2A0808083E080800503000000808080808006060000020100804023E514945AF
:405800003E00427F400042615149462141454B311814127F1027454545393C4A49493001710905033649494936064949291E003636000000563600000008142241141414E3
:40584000141441221408000201510906324979413E7E1111117E7F494949363E414141227F4141221C7F494949417F090901013E414151327F0808087F00417F41002040A2
:40588000413F017F081422417F404040407F0204027F7F0408107F3E4141413E7F090909063E4151215E7F09192946464949493101017F01013F4040403F1F2040201F7F3C
:4058C0002018207F63140814630304780403615149454300007F4141020408102041417F000004020102044040404040000102040020545454787F484444383844444420FF
:40590000384444487F3854545418087E090102081454543C7F0804047800447D40002040443D00007F10284400417F40007C041804787C0804047838444444387C14141412
:4059400008081414187C7C080404084854545420043F4440203C4040207C1C2040201C3C4030403C44281028440C5050503C4464544C44000836410000007F000000413623
:40598000080008082A1C08081C2A0808030405060708090A0B0C0E0F101112131415161718191B1C1D1E1F2021222325262728292A2B2E2F3031323334350000503B0000A8
:4059C0001E3A0000243B0000143A0000243B00002E3B0000243B0000143A00001E3A00001E3A00002E3B0000143A00000A3A00000A3A00000A3A0000803D00009843000062
:405A00005842000058420000564200007043000070430000624300005642000070430000624300007043000056420000784300007843000078430000784500004300232DD3
:405A4000302B2000686C4C006566674546470030313233343536373839414243444546003031323334353637383961626364656600000000F8B5C046F8BC08BC9E467047BD
:405A80002503000045160000F8B5C046F8BC08BC9E467047FD020000A85A0000C000002098000000B002000000000000FF7F0000F4010000FFFF00000804002001000000D4
:405AC0000000204E409C000028000000005A6202F00000000404040000000000000000000000000000000000000000000000000000000000000000003C5A000000000000E4
:405B00000000000000000000000000000000000000000000000000000000000000000000000000000000000000000000000000000000000000000000F00000200000000055
:405B40000000000000000000000000000000000000000000000000000000000000000000000000000000000000000000000000000000000000000000000000000000000025
:405B800000000000000000000000000000000000000000000000000000000000000000000000000000000000000000000000000000000000000000000000000000000000E5
:405BC00000000000000000000000000000000000000000000000000000000000000000000000000000000000000000000000000000000000000000000000000000000000A5
:405C00000000000000000000000000000000000000000000000000000000000000000000000000000000000000000000000000000000000000000000000000000000000064
:020000040003F7
:0200000490303A
:02000000881561
:0200000490402A
:4000000000000000000000000000000000000000000000000000000000000000000000000000000000000000000000000000000000000000000000000000000000000000C0
:400040000000000000000000000000000000000000000000000000000000000000000000000000000000000000000000000000000000000000000000000000000000000080
:0200000490501A
:0C0000000002101111A00001102E99B593
:0200000490600A
:0100000001FE
:00000001FF